:1000000012C02CC02BC02AC029C02CC406C45CC49A
:1000100025C024C023C0F6C021C020C01FC01EC000
:100020001DC01CC01BC011241FBECFE5D4E0DEBF25
:10003000CDBF10E0A0E6B0E0E8E6FFE002C005902A
:100040000D92AE3FB107D9F713E0AEEFB0E001C0BB
:100050001D92AB34B107E1F70BD384C7D1CF81E058
:1000600090E09093F9008093F800109211011092A3
:1000700010011092130110921201109215011092AA
:1000800014019093FB008093FA00109219011092D2
:100090001801109217011092160110921B01109274
:1000A0001A01089520E030E002C02F5F3F4FF901B0
:1000B000E058FF4F80818823C1F702C021503040B3
:1000C000808131978C37D1F72F5F3F4FC901089559
:1000D00080918200803329F410920F0110920E015A
:1000E000089581E090E090930F0180930E010895B0
:1000F0008CE35AD3209118013091190188E790E0E0
:10010000AC01249FC001259F900D349F900D1124B8
:100110008D519E4F63D38EE347D380911801909108
:10012000190160911A0170911B010196BDD690933F
:1001300019018093180108958CE336D320911201A0
:10014000309113018CE390E0AC01249FC001259F06
:10015000900D349F900D1124885D9E4F3FD38EE308
:1001600023D3809112019091130160911401709139
:100170001501019699D69093130180931201089569
:100180008CE312D380E890E029D38EE30DD3089559
:100190000F931F93009110011091110160911401B0
:1001A0007091150120E030E023C0C901880F991F2C
:1001B000F90145E0EE0FFF1F4A95E1F7E81BF90B47
:1001C000EE0FFF1FE65DFE4FA2E8B0E0522F432F77
:1001D00090818C91981751F49C3711F4052F142FAE
:1001E00031961196F5CF27303105FCF22F5F3F4F46
:1001F00026173707C4F383ED92E0F0D2C8011F91B0
:100200000F9108951F920F920FB60F9211242F9302
:100210003F934F935F936F937F938F939F93AF938E
:10022000BF93EF93FF939BD2282F8091FC00909176
:10023000FD00892B09F04CC02C3339F0A091FE0051
:10024000B091FF002E3389F50DC080910801909187
:100250000901892B19F581E090E0909309018093C1
:10026000080117C0A837B105CCF48091080190911E
:100270000901892B09F446C081E090E090930D01BB
:1002800080930C011092090110920801A058BF4FF1
:100290001C921092FF001092FE0034C081E090E0AA
:1002A00090930B0180930A012DC0A837B10554F536
:1002B00080910C0190910D01892B21F5FD01E058F1
:1002C000FF4F20831196B093FF00A093FE001AC049
:1002D0002F34C1F02B34B1F02D30A1F08091FE000D
:1002E0009091FF00883791056CF4FC01E058FF4FB6
:1002F0002083FC013196F093FF00E093FE00E0586C
:10030000FF4F1082FF91EF91BF91AF919F918F911D
:100310007F916F915F914F913F912F910F900FBE01
:100320000F901F901895CF93DF9332DFEC018CE391
:1003300090E09C01C29FC001C39F900DD29F900D81
:10034000112460E870E0885D9E4F17D3CE010196BE
:1003500063E070E0A9D59093110180931001809122
:100360001401909115018330910544F4C817D90701
:100370002CF0019690931501809314011092F900CE
:100380001092F800DF91CF910895209116013091DD
:10039000170188E790E0AC01249FC001259F900DD4
:1003A000349F900D112460E870E08D519E4FE5D28E
:1003B0008091160190911701019662E070E074D56A
:1003C0009C01909317018093160180911A019091DE
:1003D0001B018230910544F4281739072CF001964F
:1003E00090931B0180931A011092FB001092FA0067
:1003F00008950F931F9300E014E2C8010197F1F7ED
:1004000060E670E083ED92E0B8D283ED92E09DD19A
:10041000C8010197F1F764E670E083ED92E0ADD298
:1004200083ED92E092D188E893E12EE230E0F90189
:100430003197F1F70197D9F720E030E0F901E05862
:10044000FF4F8081F901ED5DFE4F8083882329F005
:100450002F5F3F4F2530310589F780E197E22EE28B
:1004600030E0F9013197F1F70197D9F781E090E099
:1004700090930B0180930A011092FD001092FC00F2
:100480001F910F910895EF92FF920F931F9382E0B7
:1004900090E003C01297EC930196FC01E058FF4FE7
:1004A000E081DC01AD5DBE4FEC37A1F712971C92E5
:1004B000E12C64E2F62EC7010197F1F703ED12E09B
:1004C00060E670E0C80159D2C8013FD1C701019769
:1004D000F1F783E291E09F938F938AE690E09F93F8
:1004E0008F931F930F9350D2C8012FD180E092E1D8
:1004F0000197F1F78DB79EB706960FB6F8949EBF99
:100500000FBE8DBF1F910F91FF90EF9008950F9335
:100510001F93BC0140E020E030E007C0F901E05843
:10052000FF4F8081480F2F5F3F4F26173707B4F3E7
:10053000842F90E09F938F9385E790E09F938F9314
:1005400003ED12E01F930F931FD2B8018CED91E0E1
:1005500014D28DB79EB706960FB6F8949EBF0FBE05
:100560008DBF1F910F9108950F931F9320E030E0EE
:1005700002C02F5F3F4FF901E058FF4F8081882371
:10058000C1F702C021503040808131978C37D1F7BC
:1005900089010F5F1F4FC801BADF00581F4FB80114
:1005A0008CED91E0E1D11F910F910895DDDF892B52
:1005B00009F052C080918000843309F449C085332A
:1005C00040F48233F1F08333F0F4813309F049C011
:1005D00008C08633E9F18633C8F1873309F041C09A
:1005E00039C080918200803329F410920F0110925B
:1005F0000E01089581E090E090930F0180930E0129
:100600000895C3DE089581E090E09093F90080930F
:10061000F800109211011092100110921301109223
:10062000120110921501109214019093FB00809317
:10063000FA001092190110921801109217011092ED
:10064000160110921B0110921A0108951CDF0895E3
:1006500097DD089568DE08958CED91E0BFD08FE3BB
:10066000A3D081E090E090930B0180930A0108955C
:10067000CF93DF9318BA84E087BB15BA14BA12BAC5
:1006800082EE81BB15BE81E089BF80E888B910BECB
:100690001BB888E18AB986E880BD579A10BC8BE008
:1006A00089B9789460D068D0A4DECEE2D0E08091A1
:1006B0000C0190910D01892B29F078DF10920D012A
:1006C00010920C018091F8009091F900892B09F4A7
:1006D00033DD8091FA009091FB00892B09F408DD4D
:1006E00080910A0190910B01892B91F081E25CD0FD
:1006F0001092FF001092FE00109209011092080162
:1007000010920D0110920C0110920B0110920A012F
:1007100080910E0190910F01892B41F068E770E004
:1007200083ED92E02AD183ED92E058D088E893E1FE
:10073000FE013197F1F7019709F4B9CFF9CF5D9B2D
:10074000FECF8CB980E090E00895FC0104C05D9B71
:10075000FECF8CB9319680818823C9F708955F9BBD
:10076000FECF8CB10895539A549A80B5866880BDA7
:1007700010BC8BE089B908952FB7F8941FBC89E8A5
:100780008EBD80EC90E09BBD8ABDB898C09A89B7B9
:10079000806289BFAD9AA59A10921D0110921C012A
:1007A00088E388BF2FBF0895282F78940000F8941D
:1007B00080911C0190911D01892BB9F7822F90E047
:1007C000880F991F966090931D0180931C0189B733
:1007D000806189BF80E188BF78940895FC0130E191
:1007E00018C078940000F89480911C0190911D012C
:1007F000892BB9F7822F90E0880F991F966090930C
:100800001D0180931C0189B7806189BF38BF78942E
:1008100031962081222329F708951F920F920FB657
:100820000F9211242F933F938F9320911C013091AD
:100830001D0120FF02C0AD9A01C0AD9821303105E5
:1008400019F489B78F7E89BF3695279530931D019E
:1008500020931C018F913F912F910F900FBE0F900D
:100860001F9018951F920F920FB60F9211242F937D
:100870003F934F935F938F939F9386B597B54AB5F8
:100880005BB59A0136952795280F391F2417350730
:1008900010F0241B350B39BD28BD88E088BF89B70F
:1008A000877D886089BF10921F0110921E011092EF
:1008B00020019F918F915F914F913F912F910F90C8
:1008C0000FBE0F901F9018951F920F920FB60F92A8
:1008D00011242F938F939F9380911E0190911F015C
:1008E00096958795B0999260209120012F5F2A30CC
:1008F000A1F480FD0BC022E08030920738F096957D
:1009000087958093220181E08093210189B7877DBB
:10091000806289BF80E288BF06C020932001909347
:100920001F0180931E019F918F912F910F900FBEF9
:100930000F901F901895809121018823E1F3109268
:1009400021018091220190E0089580912101882366
:1009500019F42FEF3FEF06C0109221018091220180
:10096000282F30E0C9010895FB01DC018D91019031
:1009700080190110D9F3990B0895FB01DC01019056
:100980000D920020E1F70895AEE0B0E0E9ECF4E06C
:10099000C0C20D891E8986E08C831A8309838FEF7C
:1009A0009FE79E838D83CE014996AC016F89788D38
:1009B000CE01019609D02F813885020F131FF8014F
:1009C00010822E96E4E0C1C2ABE0B0E0E9EEF4E0C4
:1009D00092C23C012B015A01FC01178216828381CD
:1009E00081FD03C06FEF7FEFBBC19AE0892E1E012E
:1009F0000894211C311CF3012381F20123FD859110
:100A000023FF81912F01882309F4A7C1853239F48E
:100A100023FD859123FF81912F01853221F4B301BC
:100A200090E0B8D1E8CF982FDD24CC249924FFE1C1
:100A3000FD15D0F09B3269F09C3228F4903259F0C9
:100A4000933291F40EC09D3249F0903369F441E045
:100A500024C052E0D52A84E0D82A28C098E0D92AB8
:100A600025C0E0E1DE2A22C0D7FC29C0892F8053AF
:100A70008A3070F4D6FE05C0989C902C1124980EF4
:100A800015C0C89CC02C1124C80EF0E2DF2A0EC08D
:100A90009E3229F4D6FC61C140E4D42A07C09C36BA
:100AA00019F450E8D52A02C0983649F4F20123FD22
:100AB000959123FF91912F01992309F0B8CF892FA8
:100AC0008554833018F08052833038F444E050E08D
:100AD000A40EB51E5FE359830FC0933631F09337F0
:100AE00079F0933509F052C01FC0F50180818983E8
:100AF00042E050E0A40EB51E710101E010E011C00B
:100B0000F501E080F180D6FC03C06FEF7FEF02C0FB
:100B1000692D70E042E050E0A40EB51EC7012FD150
:100B20008C015FE7D52213C0F501E080F180D6FC8F
:100B300003C06FEF7FEF02C0692D70E042E050E02C
:100B4000A40EB51EC70110D18C0150E8D52AD3FEE2
:100B500006C018C0B30180E290E01CD1CA948C2D6D
:100B600090E008171907B0F30DC0F701D7FC859185
:100B7000D7FE81917F01B30190E00CD1C110CA94DE
:100B8000015010400115110581F7E4C0943611F0B1
:100B9000993669F5D7FE08C0F501E080F180028141
:100BA000138144E050E00AC0F501808191817C010D
:100BB0000027F7FC0095102F42E050E0A40EB51E70
:100BC0005FE6D52217FF0AC010950095F094E094D7
:100BD000E11CF11C011D111D80E8D82A2AE030E03B
:100BE000A101C801B70102D1F82EF2183FC0953714
:100BF00029F41D2D1F7E2AE030E01DC01D2D197F18
:100C00009F3661F0903720F4983509F0A6C00FC0E8
:100C1000903739F0983709F0A0C004C028E030E0E0
:100C20000AC0106114FD146020E130E004C014FD1E
:100C3000166020E132E017FF08C0F5016081718184
:100C40008281938144E050E008C0F5018081918168
:100C5000BC0180E090E042E050E0A40EB51EA1018E
:100C6000C5D0F82EF2188FE7D82ED122D6FE0BC0B1
:100C70005EEFD522F91438F4D4FE07C0D2FC05C0CB
:100C80008FEED82202C01F2D01C0192DD4FE0DC039
:100C9000FE01EF0DF11D8081803319F499EED92208
:100CA00008C01F5FD2FE05C003C08D2D867809F0F5
:100CB0001F5F0D2DD3FC13C0D0FE0EC01C1510F00D
:100CC0009F2C0AC09F2C9C0C911A1C2D05C0B301AF
:100CD00080E290E05FD01F5F1C15C8F304C01C15B4
:100CE00010F4C11A01C0CC2404FF0FC0B30180E38B
:100CF00090E050D002FF1CC001FD03C088E790E0E7
:100D000002C088E590E0B3010CC0802F867881F0A6
:100D100001FF02C08BE201C080E2D7FC8DE2B3018B
:100D200090E038D005C0B30180E390E033D09A94CE
:100D3000F914C8F3FA94F101EF0DF11DB3018081AC
:100D400090E028D0FF20B1F705C0B30180E290E029
:100D500021D0CA94CC20C9F74ECEF30166817781A9
:100D6000CB012B96E2E1E3C0FC010590615070409D
:100D70000110D8F7809590958E0F9F1F0895FC0164
:100D80006150704001900110D8F7809590958E0FBA
:100D90009F1F08950F931F93CF93DF938C01EB0157
:100DA0008B8181FF1BC082FF0DC02E813F818C8112
:100DB0009D812817390764F4E881F9810193F9834B
:100DC000E88306C0E885F985802F0995892B31F4E1
:100DD0008E819F8101969F838E8302C00FEF1FEF4C
:100DE000C801DF91CF911F910F910895FA01AA27B1
:100DF000283051F1203181F1E8946F936E7F6E5F5E
:100E00007F4F8F4F9F4FAF4FB1E03ED0B4E03CD00B
:100E1000670F781F891F9A1FA11D680F791F8A1FEE
:100E2000911DA11D6A0F711D811D911DA11D20D055
:100E300009F468943F912AE0269F11243019305D0F
:100E40003193DEF6CF010895462F4770405D419300
:100E5000B3E00FD0C9F7F6CF462F4F70405D4A334D
:100E600018F0495D31FD4052419302D0A9F7EACF15
:100E7000B4E0A6959795879577956795BA95C9F744
:100E800000976105710508959B01AC010A2E069437
:100E90005795479537952795BA95C9F7620F731FF0
:100EA000841F951FA01D089597FB092E07260AD0C1
:100EB00077FD04D00CD006D000201AF4709561950F
:100EC0007F4F0895F6F7909581959F4F0895AA1B3F
:100ED000BB1B51E107C0AA1FBB1FA617B70710F025
:100EE000A61BB70B881F991F5A95A9F78095909557
:100EF000BC01CD0108952F923F924F925F926F9265
:100F00007F928F929F92AF92BF92CF92DF92EF9299
:100F1000FF920F931F93CF93DF93CDB7DEB7CA1B1A
:100F2000DB0B0FB6F894DEBF0FBECDBF09942A8845
:100F3000398848885F846E847D848C849B84AA84ED
:100F4000B984C884DF80EE80FD800C811B81AA817A
:100F5000B981CE0FD11D0FB6F894DEBF0FBECDBF45
:080F6000ED010895F894FFCFA4
:100F68002B2B2B0041544D590D0041544D592573DD
:100F78002C434E0D002564003C317C3137333E0054
:100F88000000000000000000000000000000000059
:100F98000000000000000000000000000000000049
:100FA8000000000000000000000000000000000039
:100FB8000000000000000000000000000000000029
:100FC8000000000000000000000000000000000019
:100FD8000000000000000000000000000000000009
:100FE80000000000000000000000000000000000F9
:0E0FF8000000000000000000010001000100E8
:00000001FF
