:1000000012C02CC02BC02AC029C0C6C4A0C4F6C4CC
:1000100025C04CC023C020C121C020C01FC01EC0AD
:100020001DC01CC01BC011241FBECFE5D4E0DEBF25
:10003000CDBF11E0A0E6B0E0ECE9F0E102C0059030
:100040000D92A038B107D9F713E0A0E8B1E001C0E4
:100050001D92AD3CB107E1F760D31EC8D1CF20E0BF
:1000600030E002C02F5F3F4FF901EE5FFE4F80810D
:100070008823C1F702C021503040808131978C37EE
:10008000D1F72F5F3F4FC90108958091040180335C
:1000900029F41092910110929001089581E090E06E
:1000A0009093910180939001089508951F920F926B
:1000B0000FB60F9211240F900FBE0F901F9018953E
:1000C0000F931F93CF93DF93C0919201D09193012F
:1000D000409196015091970120E030E020C0C90185
:1000E000880F991FF90165E0EE0FFF1F6A95E1F790
:1000F000E81BF90BEE0FFF1FE455FE4FA4E0B1E043
:1001000090818C91981749F49C3709F4E901319654
:100110001196F6CF2730310514F32F5F3F4F241788
:100120003507C4F3DF93CF9380E690E09F938F93DE
:1001300005E513E01F930F93C1D4C801E9D38DB730
:100140009EB706960FB6F8949EBF0FBE8DBFCE0128
:10015000DF91CF911F910F9108958CE3BFD3209130
:100160009A0130919B0188E790E0AC01249FC00187
:10017000259F900D349F900D11248B599D4FC8D30E
:100180008EE3ACD380919A0190919B0160919C0188
:1001900070919D01019622D790939B0180939A01C3
:1001A00008958CE39BD320919401309195018CE3C9
:1001B00090E0AC01249FC001259F900D349F900DCD
:1001C000112486559E4FA4D38EE388D38091940149
:1001D0009091950160919601709197010196FED6DC
:1001E000909395018093940108958CE377D382E0F6
:1001F00091E08ED38EE372D308950F931F9381E025
:1002000090E090937B0180937A0110929301109279
:100210009201109295011092940110929701109200
:10022000960190937D0180937C0110929B01109226
:100230009A01109299011092980110929D011092CA
:100240009C0105E513E062E770E0C80130D4C80105
:100250005FD31F910F9108951F920F920FB60F92C7
:1002600011242F933F934F935F936F937F938F93BB
:100270009F93AF93BF93EF93FF930BD3282F80915E
:100280007E0190917F01892B09F04CC02C3339F00D
:10029000A0918001B09181012E3389F50DC080912C
:1002A0008A0190918B01892B19F581E090E0909360
:1002B0008B0180938A0117C0A837B105CCF48091D7
:1002C0008A0190918B01892B09F442C081E090E072
:1002D00090938F0180938E0110928B0110928A016E
:1002E000AE5FBE4F1C92109281011092800130C00F
:1002F00081E090E090938D0180938C0129C0A83714
:10030000B10534F580918E0190918F01892B01F513
:10031000FD01EE5FFE4F20831196B0938101A09303
:10032000800116C02F34A1F02B3491F02D3081F0D4
:10033000E0918001F0918101DF01AE5FBE4F2C930F
:100340003196F0938101E0938001EE5FFE4F1082C1
:10035000FF91EF91BF91AF919F918F917F916F919D
:100360005F914F913F912F910F900FBE0F901F9073
:100370001895CF93DF93A4DEEC018CE390E09C0111
:10038000C29FC001C39F900DD29F900D112462E0C7
:1003900071E086559E4F8BD3CE01019663E070E0ED
:1003A0001DD6909393018093920180919601909134
:1003B00097018330910544F4C817D9072CF00196B2
:1003C000909397018093960110927B0110927A018D
:1003D000DF91CF910895209198013091990188E79C
:1003E00090E0AC01249FC001259F900D349F900D9B
:1003F000112462E071E08B599D4F59D3809198018F
:1004000090919901019662E070E0E8D59C0190938B
:1004100099018093980180919C0190919D01823077
:10042000910544F4281739072CF0019690939D010B
:1004300080939C0110927D0110927C0108950F938E
:100440001F93BC0140E050E020E030E008C0F9011B
:10045000EE5FFE4F8081480F511D2F5F3F4F2617E3
:100460003707ACF35F934F9385E890E09F938F93AA
:1004700005E513E01F930F9321D3B8018EE592E0B9
:1004800016D38DB79EB706960FB6F8949EBF0FBED3
:100490008DBF1F910F910895EF92FF920F931F93BD
:1004A00082E090E003C01297EC930196FC01EE5FAE
:1004B000FE4FE081DC01AB55BE4FEC37A1F7129740
:1004C0001C92E12CE4E2FE2EC7010197F1F705E54D
:1004D00013E068E870E0C801EAD2C801D0D1C701D2
:1004E0000197F1F785EA91E09F938F938CE890E074
:1004F0009F938F931F930F93E1D2C801C0D180E0E7
:1005000092E10197F1F78DB79EB706960FB6F89472
:100510009EBF0FBE8DBF1F910F91FF90EF9008956A
:100520000F931F9300E014E2C8010197F1F768E808
:1005300070E085E593E0BBD285E593E0A0D1C801EA
:100540000197F1F767E970E085E593E0B0D285E5C2
:1005500093E095D180E197E22EE230E0F901319706
:10056000F1F70197D9F720E030E0F901EE5FFE4F97
:100570008081F901EB55FE4F8083882329F02F5F9E
:100580003F4F2530310589F780E197E22EE230E0D8
:10059000F9013197F1F70197D9F781E090E0909355
:1005A0008D0180938C0110927F0110927E011F912A
:1005B0000F9108956F927F928F929F92AF92BF9208
:1005C000CF92DF92EF92FF920F931F935B016C012A
:1005D00039014A01E12CF4E2FF2EC7010197F1F73E
:1005E00005E513E068E870E0C80161D2C80147D1B1
:1005F000C7010197F1F7DF92CF92BF92AF929F921E
:100600008F927F926F928DE990E09F938F931F93CB
:100610000F9354D2C80133D180E092E10197F1F7F2
:100620008DB79EB70C960FB6F8949EBF0FBE8DBFC8
:100630001F910F91FF90EF90DF90CF90BF90AF9000
:100640009F908F907F906F9008950F931F9320E05D
:1006500030E002C02F5F3F4FF901EE5FFE4F808117
:100660008823C1F702C021503040808131978C37F8
:10067000D1F789010F5F1F4FC801E1DE8FEA90E0DB
:1006800047D18EE592E044D18CEC90E041D10E5FF1
:100690001E4FB8018EE592E001D21F910F9108958F
:1006A000D4DF892B71F580910201843331F18533D8
:1006B00038F48233E1F08333E0F4813339F507C055
:1006C0008633D9F08633B8F0873301F518C08091AE
:1006D0000401803329F41092910110929001089541
:1006E00081E090E09093910180939001089573DEF2
:1006F000089583DD0895D0DE089577DD089539DE0D
:1007000008958EE592E004D18FE3E8D081E090E097
:1007100090938D0180938C010895CF92DF92EF9298
:10072000FF920F931F93CF93DF9318BA84E087BB98
:1007300015BA14BA12BA82EE81BB85E083BF12BE2D
:100740001FBC1EBC1DBC1CBC17BC16BC1BBC1ABCF1
:1007500019BC18BC12BC15BC14BC13BC15BE81E07E
:1007600089BF80E888B910BE1BB888E18AB986E8DD
:1007700080BD579A10BC8BE089B978948ED096D002
:10078000CFDEB2E0CB2EB1E0DB2EACEEEA2EA0E065
:10079000FA2E05E513E0CEE2D0E080918E01909133
:1007A0008F01892BD1F08FEC90E0B2D0DF92CF9205
:1007B000FF92EF921F930F9381D185E593E0A8D02C
:1007C0006FDF10928F0110928E018DB79EB7069643
:1007D0000FB6F8949EBF0FBE8DBF80917A019091A5
:1007E0007B01892B09F4DDDC80917C0190917D01F6
:1007F000892B09F4B2DC80918C0190918D01892BB9
:1008000091F081E26BD010928101109280011092E0
:100810008B0110928A0110928F0110928E0110921A
:100820008D0110928C018091900190919101892B02
:1008300041F06AEF70E085E593E039D185E593E01A
:1008400067D08CEC90E064D085EA91E061D08CECCC
:1008500090E05ED088E893E1FE013197F1F70197CF
:10086000D9F788E893E1FE013197F1F70197D9F7BD
:1008700094CF5D9BFECF8CB980E090E00895FC01A1
:1008800004C05D9BFECF8CB9319680818823C9F767
:1008900008955F9BFECF8CB10895539A549A80B50A
:1008A000866880BD10BC8BE089B908952FB7F89495
:1008B0001FBC89E88EBD80E690E09BBD8ABDB898DC
:1008C000C09A89B7806289BFC19AB99A10929F0174
:1008D00010929E0188E388BF2FBF0895282F789437
:1008E0000000F89480919E0190919F01892BB9F7A7
:1008F000822F90E0880F991F966090939F018093BC
:100900009E0189B7806189BF80E188BF789408958E
:10091000FC0130E118C078940000F89480919E01A9
:1009200090919F01892BB9F7822F90E0880F991F32
:10093000966090939F0180939E0189B7806189BFE3
:1009400038BF789431962081222329F708951F9289
:100950000F920FB60F9211242F933F938F932091F4
:100960009E0130919F0120FF02C0C19A01C0C19831
:100970002130310519F489B78F7E89BF36952795C7
:1009800030939F0120939E018F913F912F910F9063
:100990000FBE0F901F9018951F920F920FB60F92D7
:1009A00011242F933F934F935F938F939F9386B51B
:1009B00097B54AB55BB59A0136952795280F391F2B
:1009C0002417350710F0241B350B39BD28BD88E0EE
:1009D00088BF89B7877D886089BF1092A101109276
:1009E000A0011092A2019F918F915F914F913F9131
:1009F0002F910F900FBE0F901F9018951F920F927E
:100A00000FB60F9211242F938F939F938091A00183
:100A10009091A10196958795B09992602091A2013D
:100A20002F5F2A30A1F480FD0BC022E080309207B6
:100A300038F0969587958093A40181E08093A30177
:100A400089B7877D806289BF80E288BF06C0209316
:100A5000A2019093A1018093A0019F918F912F916A
:100A60000F900FBE0F901F9018958091A3018823BF
:100A7000E1F31092A3018091A40190E00895809188
:100A8000A301882319F42FEF3FEF06C01092A301B2
:100A90008091A401282F30E0C9010895FB01DC01F9
:100AA0008D91019080190110D9F3990B0895FB01E4
:100AB000DC0101900D920020E1F70895AEE0B0E076
:100AC000E3E6F5E0C0C20D891E8986E08C831A83B7
:100AD00009838FEF9FE79E838D83CE014996AC01FA
:100AE0006F89788DCE01019609D02F813885020F4C
:100AF000131FF80110822E96E4E0C1C2ABE0B0E013
:100B0000E3E8F5E092C23C012B015A01FC01178297
:100B10001682838181FD03C06FEF7FEFBBC19AE036
:100B2000892E1E010894211C311CF3012381F2013E
:100B300023FD859123FF81912F01882309F4A7C10B
:100B4000853239F423FD859123FF81912F01853270
:100B500021F4B30190E0B8D1E8CF982FDD24CC2464
:100B60009924FFE1FD15D0F09B3269F09C3228F406
:100B7000903259F0933291F40EC09D3249F0903387
:100B800069F441E024C052E0D52A84E0D82A28C084
:100B900098E0D92A25C0E0E1DE2A22C0D7FC29C08E
:100BA000892F80538A3070F4D6FE05C0989C902C13
:100BB0001124980E15C0C89CC02C1124C80EF0E258
:100BC000DF2A0EC09E3229F4D6FC61C140E4D42A4B
:100BD00007C09C3619F450E8D52A02C0983649F46B
:100BE000F20123FD959123FF91912F01992309F0A3
:100BF000B8CF892F8554833018F08052833038F471
:100C000044E050E0A40EB51E5FE359830FC0933655
:100C100031F0933779F0933509F052C01FC0F501D8
:100C20008081898342E050E0A40EB51E710101E08D
:100C300010E011C0F501E080F180D6FC03C06FEF39
:100C40007FEF02C0692D70E042E050E0A40EB51EB7
:100C5000C7012FD18C015FE7D52213C0F501E080D9
:100C6000F180D6FC03C06FEF7FEF02C0692D70E00A
:100C700042E050E0A40EB51EC70110D18C0150E82F
:100C8000D52AD3FE06C018C0B30180E290E01CD183
:100C9000CA948C2D90E008171907B0F30DC0F70126
:100CA000D7FC8591D7FE81917F01B30190E00CD1F3
:100CB000C110CA94015010400115110581F7E4C01C
:100CC000943611F0993669F5D7FE08C0F501E08039
:100CD000F1800281138144E050E00AC0F501808177
:100CE00091817C010027F7FC0095102F42E050E035
:100CF000A40EB51E5FE6D52217FF0AC01095009519
:100D0000F094E094E11CF11C011D111D80E8D82A2B
:100D10002AE030E0A101C801B70102D1F82EF21893
:100D20003FC0953729F41D2D1F7E2AE030E01DC0FD
:100D30001D2D197F9F3661F0903720F4983509F00A
:100D4000A6C00FC0903739F0983709F0A0C004C092
:100D500028E030E00AC0106114FD146020E130E0AA
:100D600004C014FD166020E132E017FF08C0F50151
:100D7000608171818281938144E050E008C0F50177
:100D800080819181BC0180E090E042E050E0A40EBF
:100D9000B51EA101C5D0F82EF2188FE7D82ED122AA
:100DA000D6FE0BC05EEFD522F91438F4D4FE07C08E
:100DB000D2FC05C08FEED82202C01F2D01C0192D14
:100DC000D4FE0DC0FE01EF0DF11D8081803319F4BA
:100DD00099EED92208C01F5FD2FE05C003C08D2D39
:100DE000867809F01F5F0D2DD3FC13C0D0FE0EC016
:100DF0001C1510F09F2C0AC09F2C9C0C911A1C2DC6
:100E000005C0B30180E290E05FD01F5F1C15C8F3FE
:100E100004C01C1510F4C11A01C0CC2404FF0FC07B
:100E2000B30180E390E050D002FF1CC001FD03C07D
:100E300088E790E002C088E590E0B3010CC0802F05
:100E4000867881F001FF02C08BE201C080E2D7FC0E
:100E50008DE2B30190E038D005C0B30180E390E0AB
:100E600033D09A94F914C8F3FA94F101EF0DF11DFF
:100E7000B301808190E028D0FF20B1F705C0B30115
:100E800080E290E021D0CA94CC20C9F74ECEF30185
:100E900066817781CB012B96E2E1E3C0FC010590EE
:100EA000615070400110D8F7809590958E0F9F1F6C
:100EB0000895FC016150704001900110D8F78095B1
:100EC00090958E0F9F1F08950F931F93CF93DF93DD
:100ED0008C01EB018B8181FF1BC082FF0DC02E8135
:100EE0003F818C819D812817390764F4E881F9815D
:100EF0000193F983E88306C0E885F985802F099579
:100F0000892B31F48E819F8101969F838E8302C04D
:100F10000FEF1FEFC801DF91CF911F910F9108953F
:100F2000FA01AA27283051F1203181F1E8946F931A
:100F30006E7F6E5F7F4F8F4F9F4FAF4FB1E03ED0C0
:100F4000B4E03CD0670F781F891F9A1FA11D680F5E
:100F5000791F8A1F911DA11D6A0F711D811D911D91
:100F6000A11D20D009F468943F912AE0269F112406
:100F70003019305D3193DEF6CF010895462F47706A
:100F8000405D4193B3E00FD0C9F7F6CF462F4F70C5
:100F9000405D4A3318F0495D31FD4052419302D023
:100FA000A9F7EACFB4E0A6959795879577956795C9
:100FB000BA95C9F700976105710508959B01AC01C9
:100FC0000A2E06945795479537952795BA95C9F7F0
:100FD000620F731F841F951FA01D089597FB092E94
:100FE00007260AD077FD04D00CD006D000201AF4D2
:100FF000709561957F4F0895F6F7909581959F4F75
:101000000895AA1BBB1B51E107C0AA1FBB1FA6174F
:10101000B70710F0A61BB70B881F991F5A95A9F7A1
:1010200080959095BC01CD0108952F923F924F92EB
:101030005F926F927F928F929F92AF92BF92CF9268
:10104000DF92EF92FF920F931F93CF93DF93CDB771
:10105000DEB7CA1BDB0B0FB6F894DEBF0FBECDBFE9
:1010600009942A88398848885F846E847D848C84BA
:101070009B84AA84B984C884DF80EE80FD800C81C3
:101080001B81AA81B981CE0FD11D0FB6F894DEBFA6
:0C1090000FBECDBFED010895F894FFCF16
:10109C00777269746520746F20736C6F742025648B
:1010AC0020004255464645525320434C454152453B
:1010BC0044200D0A002564002B2B2B0041544D5964
:1010CC0025732C434E0D0041544D590D0041544491
:1010DC0048256C782C444C256C782C434E0D000D17
:1010EC000A206469652072696368746967652063A6
:1010FC0073756D2077616572653A20000D0A00509A
:10110C00616B65742065726B616E6E742C2050720D
:10111C006F63657373696E67200D0A00496E6861B1
:10112C006C743A202573200D0A003C317C31373326
:10113C003E00000000000000000000000000000065
:10114C000000000000000000000000000000000093
:10115C000000000000000000000000000000000083
:10116C000000000000000000000000000000000073
:10117C000000000000000000000000000000000063
:10118C000000000000000000000000000000000053
:10119C000000000000000000000000000000000043
:1011AC000000000000000000000001000100010030
:00000001FF
