:1000000012C02CC02BC02AC029C0B0C28AC2E0C214
:1000100025C025C023C0E5C021C020C01FC01EC010
:100020001DC01CC01BC011241FBECFE5D4E0DEBF25
:10003000CDBF11E0A0E6B0E0EEE5FCE002C0059027
:100040000D92A439B107D9F713E0A4E9B1E001C0DA
:100050001D92AF33B107E1F70CD0FFC5D1CF1F928E
:100060000F920FB60F9211240F900FBE0F901F909A
:1000700018950F931F93CF93DF9318BA84E087BB33
:1000800015BA14BA12BA82EE81BB85E083BF12BEE4
:100090001FBC1EBC1DBC1CBC17BC16BC1BBC1ABCA8
:1000A00019BC18BC12BC15BC14BC13BC15BE81E035
:1000B00089BF80E888B910BE1BB888E18AB986E894
:1000C00080BD579A10BC8BE089B97894D0D1D8D133
:1000D00004E610E0CEE2D0E08091A0019091A10171
:1000E000892B11F08CE3E4D180919E0190919F01C6
:1000F0009C01209FC001219F900D309F900D1124E5
:1001000081559E4FEFD18091A0019091A101892B43
:1001100011F08EE3CDD16091A0017091A101611524
:10012000710551F080919E0190919F01019637D504
:1001300090939F0180939E0180E197E2FE013197A9
:10014000F1F7019749F2FACF8F929F92AF92BF9247
:10015000CF92DF92EF92FF920F931F936B017C017E
:1001600049015A0100E014E2C8010197F1F760E685
:1001700070E08BED92E07CD28BED92E04ED1C80125
:100180000197F1F701C094D152D18D30E1F7FF9280
:10019000EF92DF92CF92BF92AF929F928F9284E6BE
:1001A00090E09F938F930BED12E01F930F9367D214
:1001B000C80133D180E092E10197F1F78DB79EB786
:1001C0000C960FB6F8949EBF0FBE8DBF1F910F9176
:1001D000FF90EF90DF90CF90BF90AF909F908F9067
:1001E00008951F920F920FB60F9211242F933F93F1
:1001F0004F935F936F937F938F939F93AF93BF932F
:10020000CF93DF93EF93FF93F89480B3805E82BB2C
:100210000ED18C3309F094C00AD180939A011092C8
:100220009B0105D180919A0190919B01C19709F0A2
:1002300086C064E686E790E0FED06091A0017091F0
:10024000A1012091980130919901A0EBB1E040E02B
:1002500050E0C4E6D0E025C02F5F3F4FAC59BF4F00
:1002600024303105D1F450939D0140939C011092AC
:1002700099011092980120919C0130919D01A6E76F
:10028000B0E084E690E0289FF001299FF00D389FB0
:10029000F00D1124E155FE4F35C04F5F5F4F20E058
:1002A00030E0461757072CF03093990120939801BE
:1002B000E2CF4C9FF0014D9FF00D5C9FF00D11249B
:1002C000E155FE4F909176008081981711F42F5FD1
:1002D0003F4F909177008C91981711F42F5F3F4F0B
:1002E0009091780011968C911197981711F42F5FC7
:1002F0003F4F9091790012968C911297981709F0C0
:10030000ADCFAACF8D91819380E0AA3DB807D1F7F8
:10031000633071055CF42617370741F42F5F3F4FB8
:100320003093A1012093A00121503040C9010196D2
:1003300063E070E034D490939D0180939C017894A5
:10034000FF91EF91DF91CF91BF91AF919F918F91ED
:100350007F916F915F914F913F912F910F900FBEC1
:100360000F901F901895EF92FF920F931F93DF93BA
:10037000CF93CDB7DEB7C456D0400FB6F894DEBFEA
:100380000FBECDBF8C019F938F938EE391E09F931F
:100390008F937E010894E11CF11CFF92EF926FD1C4
:1003A000C701A0D0C80139D08DB79EB706960FB649
:1003B000F8949EBF0FBE8DBF01C07AD038D08D306B
:1003C000E1F7CC59DF4F0FB6F894DEBF0FBECDBFBB
:1003D000CF91DF911F910F91FF90EF900895C298F8
:1003E000BA9A83E691E07ED082E891E016D080E16F
:1003F00097E22EE230E0F9013197F1F70197D9F752
:1004000086E891E0B0DF8EE891E0ADDF08955D9B76
:10041000FECF8CB980E090E00895FC0104C05D9BA4
:10042000FECF8CB9319680818823C9F708955F9BF0
:10043000FECF8CB10895582F292F5F9BFECF4CB172
:10044000852F922F9C01F90170E06150704005C02A
:1004500040835F9BFECF31964CB18E2F851B4E3370
:1004600021F090E0861797079CF310820895539A25
:10047000549A80B5866880BD10BC8BE089B9089518
:100480002FB7F8941FBC89E88EBD80E690E09BBD35
:100490008ABDB898C09A89B7806289BFC19AB99A53
:1004A0001092A9011092A80188E388BF2FBF089578
:1004B000282F78940000F8948091A8019091A901C8
:1004C000892BB9F7822F90E0880F991F966090933F
:1004D000A9018093A80189B7806189BF80E188BFA5
:1004E00078940895FC0130E118C078940000F894E5
:1004F0008091A8019091A901892BB9F7822F90E0F2
:10050000880F991F96609093A9018093A80189B7DD
:10051000806189BF38BF789431962081222329F7E2
:1005200008951F920F920FB60F9211242F933F93AD
:100530008F932091A8013091A90120FF02C0C19A98
:1005400001C0C1982130310519F489B78F7E89BF68
:10055000369527953093A9012093A8018F913F915B
:100560002F910F900FBE0F901F9018951F920F9212
:100570000FB60F9211242F933F934F935F938F9356
:100580009F9386B597B54AB55BB59A013695279581
:10059000280F391F2417350710F0241B350B39BDE0
:1005A00028BD88E088BF89B7877D886089BF1092A1
:1005B000AB011092AA011092AC019F918F915F91B3
:1005C0004F913F912F910F900FBE0F901F90189554
:1005D0001F920F920FB60F9211242F938F939F9318
:1005E0008091AA019091AB0196958795B099926000
:1005F0002091AC012F5F2A30A1F480FD0BC022E0D6
:100600008030920738F0969587958093AE0181E00F
:100610008093AD0189B7877D806289BF80E288BF02
:1006200006C02093AC019093AB018093AA019F91E7
:100630008F912F910F900FBE0F901F901895809162
:10064000AD018823E1F31092AD018091AE0190E0FD
:1006500008958091AD01882319F42FEF3FEF06C074
:100660001092AD018091AE01282F30E0C9010895AC
:10067000FB01DC0101900D920020E1F70895AEE04E
:10068000B0E0E4E4F3E0C0C20D891E8986E08C830B
:100690001A8309838FEF9FE79E838D83CE0149964E
:1006A000AC016F89788DCE01019609D02F813885F4
:1006B000020F131FF80110822E96E4E0C1C2ABE0D6
:1006C000B0E0E4E6F3E092C23C012B015A01FC01E8
:1006D00017821682838181FD03C06FEF7FEFBBC15C
:1006E0009AE0892E1E010894211C311CF3012381FC
:1006F000F20123FD859123FF81912F01882309F4C5
:10070000A7C1853239F423FD859123FF81912F0103
:10071000853221F4B30190E0B8D1E8CF982FDD24E1
:10072000CC249924FFE1FD15D0F09B3269F09C3276
:1007300028F4903259F0933291F40EC09D3249F072
:10074000903369F441E024C052E0D52A84E0D82AED
:1007500028C098E0D92A25C0E0E1DE2A22C0D7FCD3
:1007600029C0892F80538A3070F4D6FE05C0989C2A
:10077000902C1124980E15C0C89CC02C1124C80EB2
:10078000F0E2DF2A0EC09E3229F4D6FC61C140E4BB
:10079000D42A07C09C3619F450E8D52A02C09836EE
:1007A00049F4F20123FD959123FF91912F019923A3
:1007B00009F0B8CF892F8554833018F080528330E8
:1007C00038F444E050E0A40EB51E5FE359830FC037
:1007D000933631F0933779F0933509F052C01FC04A
:1007E000F5018081898342E050E0A40EB51E7101BD
:1007F00001E010E011C0F501E080F180D6FC03C0FB
:100800006FEF7FEF02C0692D70E042E050E0A40E70
:10081000B51EC7012FD18C015FE7D52213C0F501AA
:10082000E080F180D6FC03C06FEF7FEF02C0692D3E
:1008300070E042E050E0A40EB51EC70110D18C015B
:1008400050E8D52AD3FE06C018C0B30180E290E07C
:100850001CD1CA948C2D90E008171907B0F30DC075
:10086000F701D7FC8591D7FE81917F01B30190E01C
:100870000CD1C110CA94015010400115110581F727
:10088000E4C0943611F0993669F5D7FE08C0F50139
:10089000E080F1800281138144E050E00AC0F5015C
:1008A000808191817C010027F7FC0095102F42E0A8
:1008B00050E0A40EB51E5FE6D52217FF0AC01095C2
:1008C0000095F094E094E11CF11C011D111D80E8DD
:1008D000D82A2AE030E0A101C801B70102D1F82EE0
:1008E000F2183FC0953729F41D2D1F7E2AE030E015
:1008F0001DC01D2D197F9F3661F0903720F498356B
:1009000009F0A6C00FC0903739F0983709F0A0C0A1
:1009100004C028E030E00AC0106114FD146020E13A
:1009200030E004C014FD166020E132E017FF08C07B
:10093000F501608171818281938144E050E008C0BB
:10094000F50180819181BC0180E090E042E050E0BF
:10095000A40EB51EA101C5D0F82EF2188FE7D82E2F
:10096000D122D6FE0BC05EEFD522F91438F4D4FEA6
:1009700007C0D2FC05C08FEED82202C01F2D01C0D7
:10098000192DD4FE0DC0FE01EF0DF11D80818033C5
:1009900019F499EED92208C01F5FD2FE05C003C02A
:1009A0008D2D867809F01F5F0D2DD3FC13C0D0FE6E
:1009B0000EC01C1510F09F2C0AC09F2C9C0C911A85
:1009C0001C2D05C0B30180E290E05FD01F5F1C15B5
:1009D000C8F304C01C1510F4C11A01C0CC2404FFD4
:1009E0000FC0B30180E390E050D002FF1CC001FDB6
:1009F00003C088E790E002C088E590E0B3010CC036
:100A0000802F867881F001FF02C08BE201C080E276
:100A1000D7FC8DE2B30190E038D005C0B30180E38C
:100A200090E033D09A94F914C8F3FA94F101EF0DE1
:100A3000F11DB301808190E028D0FF20B1F705C0FF
:100A4000B30180E290E021D0CA94CC20C9F74ECE09
:100A5000F30166817781CB012B96E2E1E3C0FC01D3
:100A60000590615070400110D8F7809590958E0FD9
:100A70009F1F0895FC016150704001900110D8F74C
:100A8000809590958E0F9F1F08950F931F93CF937E
:100A9000DF938C01EB018B8181FF1BC082FF0DC0B6
:100AA0002E813F818C819D812817390764F4E8816C
:100AB000F9810193F983E88306C0E885F985802FE1
:100AC0000995892B31F48E819F8101969F838E83B6
:100AD00002C00FEF1FEFC801DF91CF911F910F915F
:100AE0000895FA01AA27283051F1203181F1E894C4
:100AF0006F936E7F6E5F7F4F8F4F9F4FAF4FB1E011
:100B00003ED0B4E03CD0670F781F891F9A1FA11D0B
:100B1000680F791F8A1F911DA11D6A0F711D811D0C
:100B2000911DA11D20D009F468943F912AE0269FD1
:100B300011243019305D3193DEF6CF010895462F30
:100B40004770405D4193B3E00FD0C9F7F6CF462F11
:100B50004F70405D4A3318F0495D31FD405241937A
:100B600002D0A9F7EACFB4E0A69597958795779537
:100B70006795BA95C9F700976105710508959B01BE
:100B8000AC010A2E06945795479537952795BA9547
:100B9000C9F7620F731F841F951FA01D089597FB4F
:100BA000092E07260AD077FD04D00CD006D00020ED
:100BB0001AF4709561957F4F0895F6F79095819599
:100BC0009F4F0895AA1BBB1B51E107C0AA1FBB1F63
:100BD000A617B70710F0A61BB70B881F991F5A95C9
:100BE000A9F780959095BC01CD0108952F923F9271
:100BF0004F925F926F927F928F929F92AF92BF922D
:100C0000CF92DF92EF92FF920F931F93CF93DF93D8
:100C1000CDB7DEB7CA1BDB0B0FB6F894DEBF0FBE35
:100C2000CDBF09942A88398848885F846E847D8482
:100C30008C849B84AA84B984C884DF80EE80FD8084
:100C40000C811B81AA81B981CE0FD11D0FB6F894FA
:0E0C5000DEBF0FBECDBFED010895F894FFCFBB
:100C5E002B2B2B0041544448256C782C444C256C8E
:100C6E00782C434E0D000000000000000000000034
:100C7E000000000000000000000000000000000066
:100C8E000000000000000000000000000000000056
:100C9E000000000000000000000000000000000046
:100CAE000000000000000000000000000000000036
:100CBE000000000000000000000000000000000026
:100CCE000000000000000000000000000000000016
:100CDE000000000000000000000000000000000006
:100CEE0000000000000000000000000000000000F6
:100CFE0000000000000000000000000000000000E6
:100D0E0000000000000000000000000000000000D5
:100D1E0000000000000000000000000000000000C5
:100D2E0000000000000000000000000000000D0A9E
:100D3E002D20586265653A2053656E64696E672092
:100D4E00434D443A202225732220416E73776572FB
:100D5E003A20000D0A2D20586265653A20456E74C2
:100D6E006572696E6720434D44204D6F64652E2E6B
:100D7E002E002B2B2B004154534D30320D0041547D
:040D8E00434E0D00C3
:00000001FF
