:1000000012C02CC02BC02AC029C02CC106C15CC1A3
:1000100025C024C023C022C021C020C01FC01EC0D4
:100020001DC01CC01BC011241FBECFE5D4E0DEBF25
:10003000CDBF10E0A0E6B0E0E2EAF9E002C0059032
:100040000D92AE3CB107D9F710E0AEECB0E001C0C4
:100050001D92A53DB107E1F702D0A1C4D1CF8F9287
:100060009F92AF92BF92CF92DF92FF920F931F9316
:10007000DF93CF93CDB7DEB7CB55D0400FB6F89412
:10008000DEBF0FBECDBF789475D08CE08DD08D9A39
:1000900095984E010894811C911C9BE0A92EB12CCF
:1000A000AC0EBD1E83E3C82ED12CCC0EDD1E43D179
:1000B000CC97E9F7FF240F2D10E03DD1F401E00FBC
:1000C000F11F80838C3719F41082FF2402C0F3944F
:1000D000F2CF0F2D10E02FD1F501E00FF11F80833B
:1000E0008C3719F41082FF2402C0F394F2CF0F2D45
:1000F00010E021D1F601E00FF11F80838E33E1F48F
:1001000010828CE051D080E690E068D0C40166D0C7
:1001100085E690E063D088E690E060D0C5015ED0CF
:1001200085E690E05BD080E790E058D0C60156D0DD
:1001300085E690E053D0BBCFF394D9CF5D9BFECF43
:100140008CB980E090E00895FC0104C05D9BFECF77
:100150008CB9319680818823C9F708955F9BFECFC3
:100160008CB10895539A549A80B5866880BD10BCAE
:1001700019B808952FB7F8941FBC89E88EBD80EC9C
:1001800090E09BBD8ABDBD98C59A89B7806289BF42
:1001900084E088B9C19AB99A1092CF001092CE002B
:1001A00088E388BF2FBF0895282F78940000F89423
:1001B0008091CE009091CF00892BB9F7822F90E0EB
:1001C000880F991F96609093CF008093CE0089B7D7
:1001D000806189BF80E188BF78940895FC0130E197
:1001E00018C078940000F8948091CE009091CF00D0
:1001F000892BB9F7822F90E0880F991F9660909312
:10020000CF008093CE0089B7806189BF38BF7894D2
:1002100031962081222329F708951F920F920FB65D
:100220000F9211242F933F938F932091CE00309102
:10023000CF0020FF02C0C19A01C0C1982130310512
:1002400019F489B78F7E89BF369527953093CF00F3
:100250002093CE008F913F912F910F900FBE0F9062
:100260001F9018951F920F920FB60F9211242F9383
:100270003F934F935F938F939F9386B597B54AB5FE
:100280005BB59A0136952795280F391F2417350736
:1002900010F0241B350B39BD28BD88E088BF89B715
:1002A000877D886089BF1092D1001092D000109293
:1002B000D2009F918F915F914F913F912F910F901D
:1002C0000FBE0F901F9018951F920F920FB60F92AE
:1002D00011242F938F939F938091D0009091D10000
:1002E00096958795459992602091D2002F5F2A308C
:1002F000A1F480FD0BC022E08030920738F0969583
:1003000087958093D40081E08093D30089B7877D5F
:10031000806289BF80E288BF06C02093D20090939C
:10032000D1008093D0009F918F912F910F900FBE9D
:100330000F901F9018958091D3008823E1F31092BD
:10034000D3008091D40090E008958091D300882359
:1003500019F42FEF3FEF06C01092D3008091D40024
:10036000282F30E0C9010895EF92FF920F931F9359
:10037000DF93CF93CDB7DEB7C456D0400FB6F89415
:10038000DEBF0FBECDBF8C019F938F9388E790E0B7
:100390009F938F937E010894E11CF11CFF92EF92D2
:1003A00037D0C7011BDFC801CFDE8DB79EB70696D9
:1003B0000FB6F8949EBF0FBE8DBF01C0F5DECEDE36
:1003C0008D30E1F7CC59DF4F0FB6F894DEBF0FBE8A
:1003D000CDBFCF91DF911F910F91FF90EF900895C6
:1003E000C298BA9A8DE990E0F9DE8CEB90E0ACDE31
:1003F00080E197E22EE230E0F9013197F1F70197C1
:10040000D9F780EC90E0B0DF88EC90E0ADDF0895A4
:10041000AEE0B0E0EDE0F2E099C20D891E8986E021
:100420008C831A8309838FEF9FE79E838D83CE0190
:100430004996AC016F89788DCE01019609D02F8144
:100440003885020F131FF80110822E96E4E09AC23D
:10045000ABE0B0E0EDE2F2E06BC23C012B015A01EF
:10046000FC0117821682838181FD03C06FEF7FEF4D
:10047000BBC19AE0892E1E010894211C311CF30196
:100480002381F20123FD859123FF81912F01882390
:1004900009F4A7C1853239F423FD859123FF8191A9
:1004A0002F01853221F4B30190E0B8D1E8CF982F25
:1004B000DD24CC249924FFE1FD15D0F09B3269F0B6
:1004C0009C3228F4903259F0933291F40EC09D3250
:1004D00049F0903369F441E024C052E0D52A84E029
:1004E000D82A28C098E0D92A25C0E0E1DE2A22C017
:1004F000D7FC29C0892F80538A3070F4D6FE05C0FE
:10050000989C902C1124980E15C0C89CC02C1124C6
:10051000C80EF0E2DF2A0EC09E3229F4D6FC61C17B
:1005200040E4D42A07C09C3619F450E8D52A02C00A
:10053000983649F4F20123FD959123FF91912F0103
:10054000992309F0B8CF892F8554833018F0805251
:10055000833038F444E050E0A40EB51E5FE35983C5
:100560000FC0933631F0933779F0933509F052C0CC
:100570001FC0F5018081898342E050E0A40EB51EC2
:10058000710101E010E011C0F501E080F180D6FCBE
:1005900003C06FEF7FEF02C0692D70E042E050E0D2
:1005A000A40EB51EC7012FD18C015FE7D52213C061
:1005B000F501E080F180D6FC03C06FEF7FEF02C051
:1005C000692D70E042E050E0A40EB51EC70110D1C5
:1005D0008C0150E8D52AD3FE06C018C0B30180E2D2
:1005E00090E01CD1CA948C2D90E008171907B0F345
:1005F0000DC0F701D7FC8591D7FE81917F01B30132
:1006000090E00CD1C110CA940150104001151105A1
:1006100081F7E4C0943611F0993669F5D7FE08C029
:10062000F501E080F1800281138144E050E00AC0CE
:10063000F501808191817C010027F7FC0095102F46
:1006400042E050E0A40EB51E5FE6D52217FF0AC0B7
:1006500010950095F094E094E11CF11C011D111D12
:1006600080E8D82A2AE030E0A101C801B70102D110
:10067000F82EF2183FC0953729F41D2D1F7E2AE071
:1006800030E01DC01D2D197F9F3661F0903720F49A
:10069000983509F0A6C00FC0903739F0983709F0A7
:1006A000A0C004C028E030E00AC0106114FD14604E
:1006B00020E130E004C014FD166020E132E017FFB5
:1006C00008C0F501608171818281938144E050E02E
:1006D00008C0F50180819181BC0180E090E042E09A
:1006E00050E0A40EB51EA101C5D0F82EF2188FE778
:1006F000D82ED122D6FE0BC05EEFD522F91438F4E5
:10070000D4FE07C0D2FC05C08FEED82202C01F2D38
:1007100001C0192DD4FE0DC0FE01EF0DF11D808129
:10072000803319F499EED92208C01F5FD2FE05C0AC
:1007300003C08D2D867809F01F5F0D2DD3FC13C0EB
:10074000D0FE0EC01C1510F09F2C0AC09F2C9C0CD4
:10075000911A1C2D05C0B30180E290E05FD01F5FAD
:100760001C15C8F304C01C1510F4C11A01C0CC2418
:1007700004FF0FC0B30180E390E050D002FF1CC023
:1007800001FD03C088E790E002C088E590E0B30176
:100790000CC0802F867881F001FF02C08BE201C07F
:1007A00080E2D7FC8DE2B30190E038D005C0B30100
:1007B00080E390E033D09A94F914C8F3FA94F101ED
:1007C000EF0DF11DB301808190E028D0FF20B1F73B
:1007D00005C0B30180E290E021D0CA94CC20C9F7D3
:1007E0004ECEF30166817781CB012B96E2E1BCC04E
:1007F000FC010590615070400110D8F780959095EC
:100800008E0F9F1F0895FC016150704001900110F0
:10081000D8F7809590958E0F9F1F08950F931F9383
:10082000CF93DF938C01EB018B8181FF1BC082FF93
:100830000DC02E813F818C819D812817390764F47A
:10084000E881F9810193F983E88306C0E885F98599
:10085000802F0995892B31F48E819F8101969F838A
:100860008E8302C00FEF1FEFC801DF91CF911F9160
:100870000F910895FA01AA27283051F1203181F112
:10088000E8946F936E7F6E5F7F4F8F4F9F4FAF4F98
:10089000B1E03ED0B4E03CD0670F781F891F9A1FAB
:1008A000A11D680F791F8A1F911DA11D6A0F711D5F
:1008B000811D911DA11D20D009F468943F912AE06B
:1008C000269F11243019305D3193DEF6CF01089553
:1008D000462F4770405D4193B3E00FD0C9F7F6CF84
:1008E000462F4F70405D4A3318F0495D31FD40524C
:1008F000419302D0A9F7EACFB4E0A69597958795E2
:1009000077956795BA95C9F70097610571050895C0
:100910009B01AC010A2E069457954795379527956C
:10092000BA95C9F7620F731F841F951FA01D089504
:100930002F923F924F925F926F927F928F929F92EF
:10094000AF92BF92CF92DF92EF92FF920F931F93DD
:10095000CF93DF93CDB7DEB7CA1BDB0B0FB6F8948E
:10096000DEBF0FBECDBF09942A88398848885F84CE
:100970006E847D848C849B84AA84B984C884DF803F
:10098000EE80FD800C811B81AA81B981CE0FD11D23
:100990000FB6F894DEBF0FBECDBFED010895F894F9
:0209A000FFCF87
:1009A20049443A20000D0A0054657874313A200017
:1009B20054657874323A20000D0A2D20586265651C
:1009C2003A2053656E64696E6720434D443A202293
:1009D20025732220416E737765723A20000D0A2D2D
:1009E20020586265653A20456E746572696E6720AB
:1009F200434D44204D6F64652E2E2E002B2B2B0071
:0E0A02004154534D30320D004154434E0D000F
:00000001FF
