:1000000012C02CC02BC02AC029C06AC244C29AC2E6
:1000100025C025C023C000C121C020C01FC01EC0F4
:100020001DC01CC01BC011241FBECFE5D4E0DEBF25
:10003000CDBF11E0A0E6B0E0E2EDFBE002C005902C
:100040000D92AA31B107D9F712E0AAE1B1E001C0DF
:100050001D92AF3BB107E1F70CD0B9C5D1CF1F92CC
:100060000F920FB60F9211240F900FBE0F901F909A
:100070001895CF92DF92EF92FF920F931F93CF9339
:10008000DF9318BA84E087BB15BA14BA12BA82EEAD
:1000900081BB85E083BF12BE1FBC1EBC1DBC1CBC47
:1000A00017BC16BC1BBC1ABC19BC18BC12BC15BCB6
:1000B00014BC13BC15BE81E089BF80E888B910BEAE
:1000C0001BB888E18AB986E880BD579A10BC8BE0DE
:1000D00089B9789486D18ED194E6C92ED12C80E648
:1000E000E82E80E0F82E0BE512E0CEE2D0E0809121
:1000F0004E0290914F029C012C9DC0012D9D900DB0
:100100003C9D900D1124805E9E4FA6D120915002FF
:10011000309151022115310559F080914E02909194
:100120004F020196B901F5D490934F0280934E028D
:100130003F932F9380914E0290914F029F938F9304
:1001400080914C0290914D029F938F93FF92EF927A
:100150001F930F934ED280E197E22DB73EB7265FF3
:100160003F4F0FB6F8943EBF0FBE2DBFFE01319733
:10017000F1F70197D9F78BE592E06ED1B8CF8F9266
:100180009F92AF92BF92CF92DF92EF92FF920F9326
:100190001F936B017C0149015A0100E014E2C80180
:1001A0000197F1F76EE870E08BE592E01BD28BE5EA
:1001B00092E0EDD0C8010197F1F701C033D1F1D041
:1001C0008D30E1F7FF92EF92DF92CF92BF92AF9224
:1001D0009F928F9282E990E09F938F930BE512E0BC
:1001E0001F930F9306D2C801D2D080E092E101970D
:1001F000F1F78DB79EB70C960FB6F8949EBF0FBE61
:100200008DBF1F910F91FF90EF90DF90CF90BF9027
:10021000AF909F908F9008951F920F920FB60F92FC
:100220001124CF92DF92EF92FF920F931F932F939F
:100230003F934F935F936F937F938F939F93AF936E
:10024000BF93CF93DF93EF93FF93ABD08C3309F041
:100250007FC0F89464E683EB90E0A7D0C091500291
:10026000D091510200911701109118017801089462
:10027000E11CF11C409152025091530260E070E089
:1002800032E3C32ED12C30C0F901ED54FF4F9081E1
:100290008C91981711F44F5F5F4F2F5F3F4F11966E
:1002A000E216F3068CF740175107D1F470934D0214
:1002B00060934C02109253021092520220914C0211
:1002C00030914D02A3EBB0E084E690E0289FF0016E
:1002D000299FF00D389FF00D1124E05EFE4F1AC0EB
:1002E0006F5F7F4F40E050E06C177D072CF050931C
:1002F000530240935202E2CF6C9DD0016D9DB00D30
:100300007C9DB00D1124AA0FBB1FAE5DBE4F22E035
:1003100030E0C6CF8D91819381E0A731B807D1F746
:10032000C330D1055CF42C173D0741F42F5F3F4FDC
:10033000309351022093500221503040C901019660
:1003400063E070E0E6D390934D0280934C02789482
:10035000FF91EF91DF91CF91BF91AF919F918F91DD
:100360007F916F915F914F913F912F911F910F91CD
:10037000FF90EF90DF90CF900F900FBE0F901F90E7
:1003800018955D9BFECF8CB980E090E00895FC014C
:1003900004C05D9BFECF8CB9319680818823C9F75C
:1003A00008955F9BFECF8CB10895582F292F5F9B36
:1003B000FECF4CB1852F922F9C01F90170E0615066
:1003C000704005C040835F9BFECF31964CB18E2FAD
:1003D000851B4E3321F090E0861797079CF310821F
:1003E0000895539A549A80B5866880BD10BC8BE0FE
:1003F00089B908952FB7F8941FBC89E88EBD80E6AF
:1004000090E09BBD8ABDB898C09A89B7806289BFC9
:10041000C19AB99A109255021092540288E388BF8B
:100420002FBF0895282F78940000F89480915402EB
:1004300090915502892BB9F7822F90E0880F991F70
:100440009660909355028093540289B7806189BF6A
:1004500080E188BF78940895FC0130E118C0789459
:100460000000F8948091540290915502892BB9F7BD
:10047000822F90E0880F991F966090935502809389
:10048000540289B7806189BF38BF78943196208142
:10049000222329F708951F920F920FB60F9211246D
:1004A0002F933F938F93209154023091550220FF58
:1004B00002C0C19A01C0C1982130310519F489B731
:1004C0008F7E89BF3695279530935502209354022D
:1004D0008F913F912F910F900FBE0F901F90189505
:1004E0001F920F920FB60F9211242F933F934F93A9
:1004F0005F938F939F9386B597B54AB55BB59A0185
:1005000036952795280F391F2417350710F0241B1F
:10051000350B39BD28BD88E088BF89B7877D8860E5
:1005200089BF1092570210925602109258029F9162
:100530008F915F914F913F912F910F900FBE0F9030
:100540001F9018951F920F920FB60F9211242F93A0
:100550008F939F938091560290915702969587951D
:10056000B0999260209158022F5F2A30A1F480FD4B
:100570000BC022E08030920738F0969587958093E3
:100580005A0281E08093590289B7877D806289BFD2
:1005900080E288BF06C02093580290935702809350
:1005A00056029F918F912F910F900FBE0F901F9029
:1005B0001895809159028823E1F310925902809195
:1005C0005A0290E0089580915902882319F42FEF80
:1005D0003FEF06C01092590280915A02282F30E056
:1005E000C9010895FB01DC0101900D920020E1F7A3
:1005F0000895AEE0B0E0EEEFF2E0C0C20D891E89D2
:1006000086E08C831A8309838FEF9FE79E838D8317
:10061000CE014996AC016F89788DCE01019609D043
:100620002F813885020F131FF80110822E96E4E007
:10063000C1C2ABE0B0E0EEE1F3E092C23C012B01BD
:100640005A01FC0117821682838181FD03C06FEF7E
:100650007FEFBBC19AE0892E1E010894211C311C3A
:10066000F3012381F20123FD859123FF81912F0165
:10067000882309F4A7C1853239F423FD859123FF2E
:1006800081912F01853221F4B30190E0B8D1E8CFF8
:10069000982FDD24CC249924FFE1FD15D0F09B3266
:1006A00069F09C3228F4903259F0933291F40EC0E4
:1006B0009D3249F0903369F441E024C052E0D52ADC
:1006C00084E0D82A28C098E0D92A25C0E0E1DE2AB3
:1006D00022C0D7FC29C0892F80538A3070F4D6FEFF
:1006E00005C0989C902C1124980E15C0C89CC02C55
:1006F0001124C80EF0E2DF2A0EC09E3229F4D6FC87
:1007000061C140E4D42A07C09C3619F450E8D52AC8
:1007100002C0983649F4F20123FD959123FF91918F
:100720002F01992309F0B8CF892F8554833018F011
:100730008052833038F444E050E0A40EB51E5FE3ED
:1007400059830FC0933631F0933779F0933509F020
:1007500052C01FC0F5018081898342E050E0A40EA1
:10076000B51E710101E010E011C0F501E080F180DB
:10077000D6FC03C06FEF7FEF02C0692D70E042E04E
:1007800050E0A40EB51EC7012FD18C015FE7D52222
:1007900013C0F501E080F180D6FC03C06FEF7FEF5E
:1007A00002C0692D70E042E050E0A40EB51EC70102
:1007B00010D18C0150E8D52AD3FE06C018C0B30171
:1007C00080E290E01CD1CA948C2D90E008171907A4
:1007D000B0F30DC0F701D7FC8591D7FE81917F0161
:1007E000B30190E00CD1C110CA9401501040011522
:1007F000110581F7E4C0943611F0993669F5D7FEFA
:1008000008C0F501E080F1800281138144E050E0EE
:100810000AC0F501808191817C010027F7FC0095D9
:10082000102F42E050E0A40EB51E5FE6D52217FF60
:100830000AC010950095F094E094E11CF11C011D94
:10084000111D80E8D82A2AE030E0A101C801B701D3
:1008500002D1F82EF2183FC0953729F41D2D1F7EC6
:100860002AE030E01DC01D2D197F9F3661F09037C2
:1008700020F4983509F0A6C00FC0903739F09837AA
:1008800009F0A0C004C028E030E00AC0106114FDE7
:10089000146020E130E004C014FD166020E132E075
:1008A00017FF08C0F501608171818281938144E066
:1008B00050E008C0F50180819181BC0180E090E0AA
:1008C00042E050E0A40EB51EA101C5D0F82EF218EA
:1008D0008FE7D82ED122D6FE0BC05EEFD522F914B9
:1008E00038F4D4FE07C0D2FC05C08FEED82202C077
:1008F0001F2D01C0192DD4FE0DC0FE01EF0DF11DFD
:100900008081803319F499EED92208C01F5FD2FE8E
:1009100005C003C08D2D867809F01F5F0D2DD3FC17
:1009200013C0D0FE0EC01C1510F09F2C0AC09F2CC7
:100930009C0C911A1C2D05C0B30180E290E05FD0A1
:100940001F5F1C15C8F304C01C1510F4C11A01C0A8
:10095000CC2404FF0FC0B30180E390E050D002FF2D
:100960001CC001FD03C088E790E002C088E590E06C
:10097000B3010CC0802F867881F001FF02C08BE2AA
:1009800001C080E2D7FC8DE2B30190E038D005C011
:10099000B30180E390E033D09A94F914C8F3FA9449
:1009A000F101EF0DF11DB301808190E028D0FF200F
:1009B000B1F705C0B30180E290E021D0CA94CC2009
:1009C000C9F74ECEF30166817781CB012B96E2E128
:1009D000E3C0FC010590615070400110D8F780958C
:1009E00090958E0F9F1F0895FC01615070400190FB
:1009F0000110D8F7809590958E0F9F1F08950F9343
:100A00001F93CF93DF938C01EB018B8181FF1BC080
:100A100082FF0DC02E813F818C819D81281739076F
:100A200064F4E881F9810193F983E88306C0E885DD
:100A3000F985802F0995892B31F48E819F8101964C
:100A40009F838E8302C00FEF1FEFC801DF91CF910C
:100A50001F910F910895FA01AA27283051F12031F2
:100A600081F1E8946F936E7F6E5F7F4F8F4F9F4F42
:100A7000AF4FB1E03ED0B4E03CD0670F781F891F84
:100A80009A1FA11D680F791F8A1F911DA11D6A0F52
:100A9000711D811D911DA11D20D009F468943F9105
:100AA0002AE0269F11243019305D3193DEF6CF0104
:100AB0000895462F4770405D4193B3E00FD0C9F7CA
:100AC000F6CF462F4F70405D4A3318F0495D31FD37
:100AD0004052419302D0A9F7EACFB4E0A69597958A
:100AE000879577956795BA95C9F700976105710560
:100AF00008959B01AC010A2E0694579547953795AA
:100B00002795BA95C9F7620F731F841F951FA01D03
:100B1000089597FB092E07260AD077FD04D00CD044
:100B200006D000201AF4709561957F4F0895F6F76E
:100B3000909581959F4F0895AA1BBB1B51E107C05B
:100B4000AA1FBB1FA617B70710F0A61BB70B881F5D
:100B5000991F5A95A9F780959095BC01CD010895EC
:100B60002F923F924F925F926F927F928F929F92BD
:100B7000AF92BF92CF92DF92EF92FF920F931F93AB
:100B8000CF93DF93CDB7DEB7CA1BDB0B0FB6F8945C
:100B9000DEBF0FBECDBF09942A88398848885F849C
:100BA0006E847D848C849B84AA84B984C884DF800D
:100BB000EE80FD800C811B81AA81B981CE0FD11DF1
:100BC0000FB6F894DEBF0FBECDBFED010895F894C7
:020BD000FFCF55
:100BD2006F7665727772697465736C6F743D2564A4
:100BE2003B73686F77736C6F743D25643B736C6FF6
:100BF2007473757365643D25643B200D0A002B2BCD
:100C02002B0041544448256C782C444C256C782C9C
:100C1200434E0D0048656C6C6F20576F726C640018
:100C220000000000000000000000000000000000C2
:100C320000000000000000000000000000000000B2
:100C420000000000000000000000000000000000A2
:100C52000000000000000000000000000000000092
:100C62000000000000000000000000000000000082
:100C72000000000000000000000000000000000072
:0A0C82000000000000000004000064
:00000001FF
