:1000000012C02CC02BC02AC029C037C411C467C479
:1000100025C024C023C06CC021C020C01FC01EC08A
:100020001DC01CC01BC011241FBECFE5D4E0DEBF25
:10003000CDBF11E0A0E6B0E0EEE7FFE002C0059022
:100040000D92AA31B107D9F713E0AAE1B1E001C0DE
:100050001D92A736B107E1F718D38FC7D1CF81E042
:1000600090E0909315018093140110922D0110924D
:100070002C0110922F0110922E011092310110923A
:100080003001909317018093160110923501109260
:100090003401109233011092320110923701109204
:1000A0003601089520E030E002C02F5F3F4FF90194
:1000B000E456FF4F80818823C1F702C021503040B1
:1000C000808131978C37D1F72F5F3F4FC901089559
:1000D00080919E00803329F410922B0110922A0106
:1000E000089581E090E090932B0180932A01089578
:1000F0001F920F920FB60F9211242F933F934F939D
:100100005F936F937F938F939F93AF93BF93EF937F
:10011000FF9330D3282F8091180190911901892BDA
:1001200009F04CC02C3339F0A0911A01B0911B0199
:100130002E3389F50DC08091240190912501892BE2
:1001400019F581E090E0909325018093240117C078
:10015000A837B105CCF48091240190912501892B19
:1001600009F446C081E090E0909329018093280132
:100170001092250110922401A456BF4F1C92109298
:100180001B0110921A0134C081E090E09093270186
:10019000809326012DC0A837B10554F58091280120
:1001A00090912901892B21F5FD01E456FF4F208311
:1001B0001196B0931B01A0931A011AC02F34C1F0FD
:1001C0002B34B1F02D30A1F080911A0190911B01D8
:1001D000883791056CF4FC01E456FF4F2083FC0145
:1001E0003196F0931B01E0931A01E456FF4F108201
:1001F000FF91EF91BF91AF919F918F917F916F91FF
:100200005F914F913F912F910F900FBE0F901F90D4
:1002100018958CE3D4D2209134013091350188E7D0
:1002200090E0AC01249FC001259F900D349F900D5C
:10023000112481509E4FDDD28EE3C1D280913401D2
:10024000909135016091360170913701019637D652
:10025000909335018093340108958CE3B0D22091BE
:100260002E0130912F018CE390E0AC01249FC0015E
:10027000259F900D349F900D11248C5B9E4FB9D219
:100280008EE39DD280912E0190912F0160913001DB
:1002900070913101019613D690932F0180932E0116
:1002A00008958CE38CD28CE990E0A3D28EE387D2C0
:1002B0000895209132013091330188E790E0AC013C
:1002C000249FC001259F900D349F900D11246CE94F
:1002D00070E081509E4F5CD3809132019091330148
:1002E000019662E070E0EBD59C019093330180931E
:1002F000320180913601909137018230910544F4AA
:10030000281739072CF00196909337018093360116
:10031000109217011092160108950F931F93CF9317
:10032000DF93C0912C01D0912D014091300150916B
:10033000310120E030E020C0C901880F991FF90188
:1003400065E0EE0FFF1F6A95E1F7E81BF90BEE0F72
:10035000FF1FEA5BFE4FAEE9B0E090818C919817E9
:1003600049F49C3709F4E90131961196F6CF27300C
:10037000310514F32F5F3F4F24173507C4F3DF9384
:10038000CF9380E690E09F938F930FEE12E01F9340
:100390000F9305D3C8012DD28DB79EB706960FB621
:1003A000F8949EBF0FBE8DBFCE01DF91CF911F91FC
:1003B0000F910895CF93DF93B0DFEC018CE390E0D1
:1003C0009C01C29FC001C39F900DD29F900D11242C
:1003D0006CE970E08C5B9E4FDBD2CE01019663E04E
:1003E00070E06DD590932D0180932C0180913001A8
:1003F000909131018330910544F4C817D9072CF04E
:100400000196909331018093300110921501109262
:100410001401DF91CF9108950F931F93BC0140E029
:1004200020E030E007C0F901E456FF4F8081480F1B
:100430002F5F3F4F26173707B4F3842F90E09F9329
:100440008F938CE790E09F938F930FEE12E01F93B2
:100450000F93A5D2B80188EF91E09AD28DB79EB7DD
:1004600006960FB6F8949EBF0FBE8DBF1F910F91D9
:100470000895EF92FF920F931F9382E090E003C0E4
:100480001297EC930196FC01E456FF4FE081DC01EA
:10049000A15CBE4FEC37A1F712971C92E12CE4E26D
:1004A000FE2EC7010197F1F70FEE12E06FE770E043
:1004B000C8016ED2C80154D1C7010197F1F78FE38B
:1004C00091E09F938F9383E890E09F938F931F9386
:1004D0000F9365D2C80144D180E092E10197F1F712
:1004E0008DB79EB706960FB6F8949EBF0FBE8DBF10
:1004F0001F910F91FF90EF9008950F931F9300E0CD
:1005000014E2C8010197F1F76FE770E08FEE92E017
:100510003FD28FEE92E024D1C8010197F1F76EE847
:1005200070E08FEE92E034D28FEE92E019D188E83D
:1005300093E12EE230E0F9013197F1F70197D9F715
:1005400020E030E0F901E456FF4F8081F901E15CE1
:10055000FE4F8083882329F02F5F3F4F25303105E0
:1005600089F780E197E22EE230E0F9013197F1F767
:100570000197D9F781E090E09093270180932601BD
:1005800010921901109218011F910F9108950F9365
:100590001F9320E030E002C02F5F3F4FF901E45687
:1005A000FF4F80818823C1F702C0215030408081F5
:1005B00031978C37D1F789010F5F1F4FC8012CDFAE
:1005C00004561F4FB80188EF91E0D9D11F910F91C8
:1005D0000895DDDF892B09F051C080919C008433A0
:1005E00009F448C0853340F48233E9F08333E8F4FA
:1005F000813309F043C007C08633E1F18633C0F18F
:100600008733E1F539C080919E00803329F4109240
:100610002B0110922A01089581E090E090932B0124
:1006200080932A01089545DE089581E090E090933B
:1006300015018093140110922D0110922C0110923B
:100640002F0110922E0110923101109230019093DF
:100650001701809316011092350110923401109207
:100660003301109232011092370110923601089531
:1006700000DF089516DE08959DDE089581E090E084
:1006800090932701809326010895CF93DF9318BAA2
:1006900084E087BB15BA14BA12BA82EE81BB15BECC
:1006A00081E089BF80E888B910BE1BB888E18AB9AB
:1006B00086E880BD579A10BC8BE089B978945ED0EB
:1006C00066D01BDFCEE2D0E0809128019091290115
:1006D000892B29F07EDF1092290110922801809148
:1006E000140190911501892B09F4B7DD8091160151
:1006F00090911701892B09F48CDD8091260190914E
:100700002701892B81F010921B0110921A0110927F
:1007100025011092240110922901109228011092B3
:1007200027011092260180912A0190912B01892B9B
:1007300041F064E970E08FEE92E02AD18FEE92E012
:1007400058D088E893E1FE013197F1F7019709F459
:10075000BBCFF9CF5D9BFECF8CB980E090E00895D0
:10076000FC0104C05D9BFECF8CB93196808188234B
:10077000C9F708955F9BFECF8CB10895539A549AA0
:1007800080B5866880BD10BC8BE089B908952FB70D
:10079000F8941FBC89E88EBD80EC90E09BBD8ABDBB
:1007A000B898C09A89B7806289BFC19AB99A1092E5
:1007B00039011092380188E388BF2FBF0895282F90
:1007C00078940000F8948091380190913901892B38
:1007D000B9F7822F90E0880F991F966090933901A6
:1007E0008093380189B7806189BF80E188BF7894A0
:1007F0000895FC0130E118C078940000F8948091CD
:10080000380190913901892BB9F7822F90E0880F38
:10081000991F9660909339018093380189B7806160
:1008200089BF38BF789431962081222329F7089513
:100830001F920F920FB60F9211242F933F938F9315
:10084000209138013091390120FF02C0C19A01C0C6
:10085000C1982130310519F489B78F7E89BF36954B
:10086000279530933901209338018F913F912F9133
:100870000F900FBE0F901F9018951F920F920FB6FA
:100880000F9211242F933F934F935F938F939F93D6
:1008900086B597B54AB55BB59A0136952795280F69
:1008A000391F2417350710F0241B350B39BD28BD1F
:1008B00088E088BF89B7877D886089BF10923B0137
:1008C00010923A0110923C019F918F915F914F914C
:1008D0003F912F910F900FBE0F901F9018951F9270
:1008E0000F920FB60F9211242F938F939F938091A5
:1008F0003A0190913B0196958795B099926020912D
:100900003C012F5F2A30A1F480FD0BC022E0803033
:10091000920738F09695879580933E0181E0809309
:100920003D0189B7877D806289BF80E288BF06C0AC
:1009300020933C0190933B0180933A019F918F91CA
:100940002F910F900FBE0F901F90189580913D0131
:100950008823E1F310923D0180913E0190E00895DB
:1009600080913D01882319F42FEF3FEF06C01092CC
:100970003D0180913E01282F30E0C9010895FB011F
:10098000DC018D91019080190110D9F3990B089524
:10099000FB01DC0101900D920020E1F70895AEE02B
:1009A000B0E0E4EDF4E0C0C20D891E8986E08C83DE
:1009B0001A8309838FEF9FE79E838D83CE0149962B
:1009C000AC016F89788DCE01019609D02F813885D1
:1009D000020F131FF80110822E96E4E0C1C2ABE0B3
:1009E000B0E0E4EFF4E092C23C012B015A01FC01BB
:1009F00017821682838181FD03C06FEF7FEFBBC139
:100A00009AE0892E1E010894211C311CF3012381D8
:100A1000F20123FD859123FF81912F01882309F4A1
:100A2000A7C1853239F423FD859123FF81912F01E0
:100A3000853221F4B30190E0B8D1E8CF982FDD24BE
:100A4000CC249924FFE1FD15D0F09B3269F09C3253
:100A500028F4903259F0933291F40EC09D3249F04F
:100A6000903369F441E024C052E0D52A84E0D82ACA
:100A700028C098E0D92A25C0E0E1DE2A22C0D7FCB0
:100A800029C0892F80538A3070F4D6FE05C0989C07
:100A9000902C1124980E15C0C89CC02C1124C80E8F
:100AA000F0E2DF2A0EC09E3229F4D6FC61C140E498
:100AB000D42A07C09C3619F450E8D52A02C09836CB
:100AC00049F4F20123FD959123FF91912F01992380
:100AD00009F0B8CF892F8554833018F080528330C5
:100AE00038F444E050E0A40EB51E5FE359830FC014
:100AF000933631F0933779F0933509F052C01FC027
:100B0000F5018081898342E050E0A40EB51E710199
:100B100001E010E011C0F501E080F180D6FC03C0D7
:100B20006FEF7FEF02C0692D70E042E050E0A40E4D
:100B3000B51EC7012FD18C015FE7D52213C0F50187
:100B4000E080F180D6FC03C06FEF7FEF02C0692D1B
:100B500070E042E050E0A40EB51EC70110D18C0138
:100B600050E8D52AD3FE06C018C0B30180E290E059
:100B70001CD1CA948C2D90E008171907B0F30DC052
:100B8000F701D7FC8591D7FE81917F01B30190E0F9
:100B90000CD1C110CA94015010400115110581F704
:100BA000E4C0943611F0993669F5D7FE08C0F50116
:100BB000E080F1800281138144E050E00AC0F50139
:100BC000808191817C010027F7FC0095102F42E085
:100BD00050E0A40EB51E5FE6D52217FF0AC010959F
:100BE0000095F094E094E11CF11C011D111D80E8BA
:100BF000D82A2AE030E0A101C801B70102D1F82EBD
:100C0000F2183FC0953729F41D2D1F7E2AE030E0F1
:100C10001DC01D2D197F9F3661F0903720F4983547
:100C200009F0A6C00FC0903739F0983709F0A0C07E
:100C300004C028E030E00AC0106114FD146020E117
:100C400030E004C014FD166020E132E017FF08C058
:100C5000F501608171818281938144E050E008C098
:100C6000F50180819181BC0180E090E042E050E09C
:100C7000A40EB51EA101C5D0F82EF2188FE7D82E0C
:100C8000D122D6FE0BC05EEFD522F91438F4D4FE83
:100C900007C0D2FC05C08FEED82202C01F2D01C0B4
:100CA000192DD4FE0DC0FE01EF0DF11D80818033A2
:100CB00019F499EED92208C01F5FD2FE05C003C007
:100CC0008D2D867809F01F5F0D2DD3FC13C0D0FE4B
:100CD0000EC01C1510F09F2C0AC09F2C9C0C911A62
:100CE0001C2D05C0B30180E290E05FD01F5F1C1592
:100CF000C8F304C01C1510F4C11A01C0CC2404FFB1
:100D00000FC0B30180E390E050D002FF1CC001FD92
:100D100003C088E790E002C088E590E0B3010CC012
:100D2000802F867881F001FF02C08BE201C080E253
:100D3000D7FC8DE2B30190E038D005C0B30180E369
:100D400090E033D09A94F914C8F3FA94F101EF0DBE
:100D5000F11DB301808190E028D0FF20B1F705C0DC
:100D6000B30180E290E021D0CA94CC20C9F74ECEE6
:100D7000F30166817781CB012B96E2E1E3C0FC01B0
:100D80000590615070400110D8F7809590958E0FB6
:100D90009F1F0895FC016150704001900110D8F729
:100DA000809590958E0F9F1F08950F931F93CF935B
:100DB000DF938C01EB018B8181FF1BC082FF0DC093
:100DC0002E813F818C819D812817390764F4E88149
:100DD000F9810193F983E88306C0E885F985802FBE
:100DE0000995892B31F48E819F8101969F838E8393
:100DF00002C00FEF1FEFC801DF91CF911F910F913C
:100E00000895FA01AA27283051F1203181F1E894A0
:100E10006F936E7F6E5F7F4F8F4F9F4FAF4FB1E0ED
:100E20003ED0B4E03CD0670F781F891F9A1FA11DE8
:100E3000680F791F8A1F911DA11D6A0F711D811DE9
:100E4000911DA11D20D009F468943F912AE0269FAE
:100E500011243019305D3193DEF6CF010895462F0D
:100E60004770405D4193B3E00FD0C9F7F6CF462FEE
:100E70004F70405D4A3318F0495D31FD4052419357
:100E800002D0A9F7EACFB4E0A69597958795779514
:100E90006795BA95C9F700976105710508959B019B
:100EA000AC010A2E06945795479537952795BA9524
:100EB000C9F7620F731F841F951FA01D089597FB2C
:100EC000092E07260AD077FD04D00CD006D00020CA
:100ED0001AF4709561957F4F0895F6F79095819576
:100EE0009F4F0895AA1BBB1B51E107C0AA1FBB1F40
:100EF000A617B70710F0A61BB70B881F991F5A95A6
:100F0000A9F780959095BC01CD0108952F923F924D
:100F10004F925F926F927F928F929F92AF92BF9209
:100F2000CF92DF92EF92FF920F931F93CF93DF93B5
:100F3000CDB7DEB7CA1BDB0B0FB6F894DEBF0FBE12
:100F4000CDBF09942A88398848885F846E847D845F
:100F50008C849B84AA84B984C884DF80EE80FD8061
:100F60000C811B81AA81B981CE0FD11D0FB6F894D7
:0E0F7000DEBF0FBECDBFED010895F894FFCF98
:100F7E00756562657273636872696562656E207706
:100F8E0069726420736C6F74202564002564002BD5
:100F9E002B2B0041544D5925732C434E0D004154BB
:100FAE004D590D003C317C3137333E0000000000BE
:100FBE000000000000000000000000000000000023
:100FCE000000000000000000000000000000000013
:100FDE000000000000000000000000000000000003
:100FEE0000000000000000000000000000000000F3
:100FFE0000000000000000000000000000000000E3
:10100E0000000000000000000000000000000000D2
:10101E0000000000000000000000000000000000C2
:0A102E0000000000010001000100B5
:00000001FF
