:1000000012C02CC02BC02AC029C0E7C4C1C417C568
:1000100025C05CC023C020C121C020C01FC01EC09D
:100020001DC01CC01BC011241FBECFE5D4E0DEBF25
:10003000CDBF11E0A0E6B0E0EEEDF0E102C005902A
:100040000D92AC38B107D9F713E0ACE8B1E001C0CC
:100050001D92A93DB107E1F71AD33FC8D1CF08954A
:1000600020E030E002C02F5F3F4FF901E35FFE4F19
:1000700080818823C1F702C02150304080813197B0
:100080008C37D1F72F5F3F4FC901089580E090E092
:1000900005C0FC01EF54FE4F20830196FC01E35F95
:1000A000FE4F20812223A9F7089580910F0180330C
:1000B00029F410929D0110929C01089581E090E036
:1000C00090939D0180939C01089508951F920F9233
:1000D0000FB60F9211240F900FBE0F901F9018951E
:1000E0002091A6013091A70188E790E0AC01249F00
:1000F000C001259F900D349F900D11248F589D4F66
:1001000028D48091A6019091A7016091A8017091D7
:10011000A901019684D79093A7018093A601089521
:100120002091A0013091A1018CE390E0AC01249FCB
:10013000C001259F900D349F900D11248A549E4F2D
:1001400008D48091A0019091A1016091A2017091C9
:10015000A301019664D79093A1018093A001089513
:100160000F931F93CF93DF93C0919E01D0919F0176
:100170004091A2015091A30120E030E020C0C901CC
:10018000880F991FF90165E0EE0FFF1F6A95E1F7EF
:10019000E81BF90BEE0FFF1FE854FE4FAFE0B1E094
:1001A00090818C91981749F49C3709F4E9013196B4
:1001B0001196F6CF2730310514F32F5F3F4F2417E8
:1001C0003507C4F3DF93CF9380E690E09F938F933E
:1001D00001E613E01F930F9392D4C801BAD38DB7F1
:1001E0009EB706960FB6F8949EBF0FBE8DBFCE0188
:1001F000DF91CF911F910F9108950F931F9381E08D
:1002000090E0909386018093850110929F01109257
:100210009E011092A1011092A0011092A3011092D0
:10022000A20190938801809387011092A7011092F8
:10023000A6011092A5011092A4011092A90110929A
:10024000A80101E613E062E770E0C80151D4C801DB
:1002500080D31F910F9108951F920F920FB60F92A6
:1002600011242F933F934F935F936F937F938F93BB
:100270009F93AF93BF93EF93FF932CD3282F80913D
:10028000890190918A01892B09F04CC02C3339F0F7
:10029000A0918C01B0918D012E3389F50DC0809114
:1002A000960190919701892B19F581E090E0909348
:1002B00097018093960117C0A837B105CCF48091BF
:1002C000960190919701892B09F43FC081E090E05D
:1002D00090939B0180939A0110929701109296013E
:1002E000A35FBE4F1C9210928D0110928C012DC005
:1002F00081E090E0909399018093980126C0A837FF
:10030000B1051CF580919A0190919B01892BE9F42C
:10031000FD01E35FFE4F20831196B0938D01A09302
:100320008C0113C02F3489F02B3479F02D3069F013
:1003300080918C0190918D01FC01E35FFE4F208341
:10034000019690938D0180938C01FF91EF91BF9165
:10035000AF919F918F917F916F915F914F913F915D
:100360002F910F900FBE0F901F901895CF93DF9392
:10037000F7DEEC018CE390E09C01C29FC001C39FBB
:10038000900DD29F900D11246DE071E08A549E4F24
:10039000AFD3CE01019663E070E041D690939F0108
:1003A00080939E018091A2019091A30183309105D9
:1003B00044F4C817D9072CF001969093A3018093B9
:1003C000A2011092860110928501DF91CF910895CC
:1003D0002091A4013091A50188E790E0AC01249F11
:1003E000C001259F900D349F900D11246DE071E0A8
:1003F0008F589D4F7DD38091A4019091A5010196C6
:1004000062E070E00CD69C019093A5018093A4015A
:100410008091A8019091A9018230910544F4281798
:1004200039072CF001969093A9018093A8011092AE
:10043000880110928701089520919E0130919F01BB
:100440008CE390E0AC01249FC001259F900D349F68
:10045000900D11246DE071E08A549E4F49D3809134
:100460009E0190919F01019663E070E0D8D5909332
:100470009F0180939E018091A2019091A3018330FE
:1004800091052CF401969093A3018093A201109200
:1004900086011092850108950F931F93BC0140E0DF
:1004A00050E020E030E008C0F901E35FFE4F8081BA
:1004B000480F511D2F5F3F4F26173707ACF35F934F
:1004C0004F9385E890E09F938F9301E613E01F938D
:1004D0000F9315D3B8018AE692E00AD38DB79EB781
:1004E00006960FB6F8949EBF0FBE8DBF1F910F9159
:1004F00008950F931F9320E030E002C02F5F3F4F1D
:10050000F901E35FFE4F80818823C1F702C02150CB
:100510003040808131978C37D1F789010F5F1F4FB1
:10052000C801BADF8AE692E014D28BE3F8D1035F08
:100530001E4FC8010ED2B8018AE692E0D0D21F91B8
:100540000F910895D6DF892B09F041C080910D01EC
:10055000843309F447C0853338F48233F9F08333A8
:10056000F8F4813369F50AC08633E1F1863318F077
:10057000873331F523C080E090E019C080910F01EE
:10058000803329F410929D0110929C01089581E01E
:1005900090E090939D0180939C01089519DF089548
:1005A0002CDE0895FC01EF54FE4F20830196FC01E0
:1005B000E35FFE4F20812223A9F70895D7DE089537
:1005C00081E090E0909399018093980108958AE6E4
:1005D00092E0BFD18FE3A3D181E090E090939901A5
:1005E0008093980108950F931F9300E014E2C801CF
:1005F0000197F1F768E870E081E693E079D281E64F
:1006000093E05ED1C8010197F1F76CE870E081E6F4
:1006100093E06ED281E693E053D180E197E22EE23F
:1006200030E0F9013197F1F70197D9F7E0918C01AA
:10063000F0918D01E35FFE4F108220E030E0F90180
:10064000E35FFE4F8081F901EF54FE4F80838823E2
:1006500029F02F5F3F4F2530310589F781EB91E07D
:1006600078D180E197E22EE230E0F9013197F1F79D
:100670000197D9F781E090E09093990180939801D8
:1006800010928A01109289011F910F910895AF92E3
:10069000BF92CF92DF92EF92FF920F931F93CF936F
:1006A000DF9318BA84E087BB15BA14BA12BA82EE87
:1006B00081BB85E083BF12BE1FBC1EBC1DBC1CBC21
:1006C00017BC16BC1BBC1ABC19BC18BC12BC15BC90
:1006D00014BC13BC15BE81E089BF80E888B910BE88
:1006E0001BB888E18AB986E880BD579A10BC8BE0B8
:1006F00089B97894F3D0FBD076DFADE0AA2EA1E0E3
:10070000BA2EFFEACF2EF0E0DF2EC1E6D3E0E5EC13
:10071000EE2EE0E0FE2E0EE210E080919A01909124
:100720009B01892BD9F082E990E013D1BF92AF925F
:10073000DF92CF92DF93CF93E2D181E693E009D1AC
:1007400001DF10929B0110929A012DB73EB72A5FEC
:100750003F4F0FB6F8943EBF0FBE2DBF809185016D
:1007600090918601892B09F4DBDC809187019091BF
:100770008801892B09F4B4DC80919801909199014A
:10078000892B91F081E2CBD010928D0110928C01D7
:10079000109297011092960110929B0110929A016B
:1007A000109299011092980180919C0190919D0165
:1007B000892B41F06DEB70E081E693E099D181E601
:1007C00093E0C7D08091A8019091A9019F938F9346
:1007D0008091A6019091A7019F938F938091A4018E
:1007E0009091A5019F938F93FF92EF92DF93CF9308
:1007F00086D181E693E0ADD080E197E22DB73EB798
:10080000265F3F4F0FB6F8943EBF0FBE2DBFF801D5
:100810003197F1F70197D9F780CF8F929F92AF92DE
:10082000BF92CF92DF92EF92FF920F931F936B01D3
:100830007C0149015A0100E014E2C8010197F1F777
:1008400068E870E081E693E053D181E693E038D028
:10085000C8010197F1F701C062D03CD08D30E1F7BB
:10086000FF92EF92DF92CF92BF92AF929F928F92C0
:100870008BEF90E09F938F9301E613E01F930F930C
:100880003ED1C8011DD080E092E10197F1F78DB70C
:100890009EB70C960FB6F8949EBF0FBE8DBF1F91EA
:1008A0000F91FF90EF90DF90CF90BF90AF909F900F
:1008B0008F9008955D9BFECF8CB980E090E0089505
:1008C000FC0104C05D9BFECF8CB9319680818823EA
:1008D000C9F708955F9BFECF8CB10895539A549A3F
:1008E00080B5866880BD10BC8BE089B908952FB7AC
:1008F000F8941FBC89E88EBD80E690E09BBD8ABD60
:10090000B898C09A89B7806289BFC19AB99A109283
:10091000AB011092AA0188E388BF2FBF0895282F4A
:1009200078940000F8948091AA019091AB01892BF2
:10093000B9F7822F90E0880F991F96609093AB01D2
:100940008093AA0189B7806189BF80E188BF7894CC
:100950000895FC0130E118C078940000F89480916B
:10096000AA019091AB01892BB9F7822F90E0880FF3
:10097000991F96609093AB018093AA0189B780611B
:1009800089BF38BF789431962081222329F70895B2
:100990001F920F920FB60F9211242F933F938F93B4
:1009A0002091AA013091AB0120FF02C0C19A01C081
:1009B000C1982130310519F489B78F7E89BF3695EA
:1009C00027953093AB012093AA018F913F912F91EE
:1009D0000F900FBE0F901F9018951F920F920FB699
:1009E0000F9211242F933F934F935F938F939F9375
:1009F00086B597B54AB55BB59A0136952795280F08
:100A0000391F2417350710F0241B350B39BD28BDBD
:100A100088E088BF89B7877D886089BF1092AD0163
:100A20001092AC011092AE019F918F915F914F9106
:100A30003F912F910F900FBE0F901F9018951F920E
:100A40000F920FB60F9211242F938F939F93809143
:100A5000AC019091AD0196958795B09992602091E7
:100A6000AE012F5F2A30A1F480FD0BC022E0803060
:100A7000920738F0969587958093B00181E0809336
:100A8000AF0189B7877D806289BF80E288BF06C0D9
:100A90002093AE019093AD018093AC019F918F9113
:100AA0002F910F900FBE0F901F9018958091AF015E
:100AB0008823E1F31092AF018091B00190E0089596
:100AC0008091AF01882319F42FEF3FEF06C01092F9
:100AD000AF018091B001282F30E0C9010895FB01DA
:100AE000DC018D91019080190110D9F3990B0895C3
:100AF000FB01DC0101900D920020E1F70895AEE0CA
:100B0000B0E0E4E8F5E0C0C20D891E8986E08C8380
:100B10001A8309838FEF9FE79E838D83CE014996C9
:100B2000AC016F89788DCE01019609D02F8138856F
:100B3000020F131FF80110822E96E4E0C1C2ABE051
:100B4000B0E0E4EAF5E092C23C012B015A01FC015D
:100B500017821682838181FD03C06FEF7FEFBBC1D7
:100B60009AE0892E1E010894211C311CF301238177
:100B7000F20123FD859123FF81912F01882309F440
:100B8000A7C1853239F423FD859123FF81912F017F
:100B9000853221F4B30190E0B8D1E8CF982FDD245D
:100BA000CC249924FFE1FD15D0F09B3269F09C32F2
:100BB00028F4903259F0933291F40EC09D3249F0EE
:100BC000903369F441E024C052E0D52A84E0D82A69
:100BD00028C098E0D92A25C0E0E1DE2A22C0D7FC4F
:100BE00029C0892F80538A3070F4D6FE05C0989CA6
:100BF000902C1124980E15C0C89CC02C1124C80E2E
:100C0000F0E2DF2A0EC09E3229F4D6FC61C140E436
:100C1000D42A07C09C3619F450E8D52A02C0983669
:100C200049F4F20123FD959123FF91912F0199231E
:100C300009F0B8CF892F8554833018F08052833063
:100C400038F444E050E0A40EB51E5FE359830FC0B2
:100C5000933631F0933779F0933509F052C01FC0C5
:100C6000F5018081898342E050E0A40EB51E710138
:100C700001E010E011C0F501E080F180D6FC03C076
:100C80006FEF7FEF02C0692D70E042E050E0A40EEC
:100C9000B51EC7012FD18C015FE7D52213C0F50126
:100CA000E080F180D6FC03C06FEF7FEF02C0692DBA
:100CB00070E042E050E0A40EB51EC70110D18C01D7
:100CC00050E8D52AD3FE06C018C0B30180E290E0F8
:100CD0001CD1CA948C2D90E008171907B0F30DC0F1
:100CE000F701D7FC8591D7FE81917F01B30190E098
:100CF0000CD1C110CA94015010400115110581F7A3
:100D0000E4C0943611F0993669F5D7FE08C0F501B4
:100D1000E080F1800281138144E050E00AC0F501D7
:100D2000808191817C010027F7FC0095102F42E023
:100D300050E0A40EB51E5FE6D52217FF0AC010953D
:100D40000095F094E094E11CF11C011D111D80E858
:100D5000D82A2AE030E0A101C801B70102D1F82E5B
:100D6000F2183FC0953729F41D2D1F7E2AE030E090
:100D70001DC01D2D197F9F3661F0903720F49835E6
:100D800009F0A6C00FC0903739F0983709F0A0C01D
:100D900004C028E030E00AC0106114FD146020E1B6
:100DA00030E004C014FD166020E132E017FF08C0F7
:100DB000F501608171818281938144E050E008C037
:100DC000F50180819181BC0180E090E042E050E03B
:100DD000A40EB51EA101C5D0F82EF2188FE7D82EAB
:100DE000D122D6FE0BC05EEFD522F91438F4D4FE22
:100DF00007C0D2FC05C08FEED82202C01F2D01C053
:100E0000192DD4FE0DC0FE01EF0DF11D8081803340
:100E100019F499EED92208C01F5FD2FE05C003C0A5
:100E20008D2D867809F01F5F0D2DD3FC13C0D0FEE9
:100E30000EC01C1510F09F2C0AC09F2C9C0C911A00
:100E40001C2D05C0B30180E290E05FD01F5F1C1530
:100E5000C8F304C01C1510F4C11A01C0CC2404FF4F
:100E60000FC0B30180E390E050D002FF1CC001FD31
:100E700003C088E790E002C088E590E0B3010CC0B1
:100E8000802F867881F001FF02C08BE201C080E2F2
:100E9000D7FC8DE2B30190E038D005C0B30180E308
:100EA00090E033D09A94F914C8F3FA94F101EF0D5D
:100EB000F11DB301808190E028D0FF20B1F705C07B
:100EC000B30180E290E021D0CA94CC20C9F74ECE85
:100ED000F30166817781CB012B96E2E1E3C0FC014F
:100EE0000590615070400110D8F7809590958E0F55
:100EF0009F1F0895FC016150704001900110D8F7C8
:100F0000809590958E0F9F1F08950F931F93CF93F9
:100F1000DF938C01EB018B8181FF1BC082FF0DC031
:100F20002E813F818C819D812817390764F4E881E7
:100F3000F9810193F983E88306C0E885F985802F5C
:100F40000995892B31F48E819F8101969F838E8331
:100F500002C00FEF1FEFC801DF91CF911F910F91DA
:100F60000895FA01AA27283051F1203181F1E8943F
:100F70006F936E7F6E5F7F4F8F4F9F4FAF4FB1E08C
:100F80003ED0B4E03CD0670F781F891F9A1FA11D87
:100F9000680F791F8A1F911DA11D6A0F711D811D88
:100FA000911DA11D20D009F468943F912AE0269F4D
:100FB00011243019305D3193DEF6CF010895462FAC
:100FC0004770405D4193B3E00FD0C9F7F6CF462F8D
:100FD0004F70405D4A3318F0495D31FD40524193F6
:100FE00002D0A9F7EACFB4E0A695979587957795B3
:100FF0006795BA95C9F700976105710508959B013A
:10100000AC010A2E06945795479537952795BA95C2
:10101000C9F7620F731F841F951FA01D089597FBCA
:10102000092E07260AD077FD04D00CD006D0002068
:101030001AF4709561957F4F0895F6F79095819514
:101040009F4F0895AA1BBB1B51E107C0AA1FBB1FDE
:10105000A617B70710F0A61BB70B881F991F5A9544
:10106000A9F780959095BC01CD0108952F923F92EC
:101070004F925F926F927F928F929F92AF92BF92A8
:10108000CF92DF92EF92FF920F931F93CF93DF9354
:10109000CDB7DEB7CA1BDB0B0FB6F894DEBF0FBEB1
:1010A000CDBF09942A88398848885F846E847D84FE
:1010B0008C849B84AA84B984C884DF80EE80FD8000
:1010C0000C811B81AA81B981CE0FD11D0FB6F89476
:0E10D000DEBF0FBECDBFED010895F894FFCF37
:1010DE00777269746520746F20736C6F7420256449
:1010EE0020004255464645525320434C45415245F9
:1010FE0044200D0A002564002B2B2B0041544D5922
:10110E000D0050616B65742065726B616E6E742C90
:10111E002050726F63657373696E67200D0A004904
:10112E006E68616C743A202573200D0A003C317C88
:10113E003137333E0020206E65787461644F7665DA
:10114E00727772697465736C6F743D25643B6E655E
:10115E007874616453686F773D25643B6164737581
:10116E007365643D25643B200D0A004154444825B7
:10117E006C782C444C256C782C434E0D00000000EE
:10118E000000000000000000000000000000000051
:10119E000000000000000000000000000000000041
:1011AE000000000000000000000000000000000031
:1011BE000000000000000000000000000000000021
:1011CE000000000000000000000000000000000011
:1011DE000000000000000000000000000000000001
:1011EE0000000000000000000000000000000000F1
:0C11FE00000000000001000100010000E2
:00000001FF
