:1000000012C02CC02BC02AC029C024C3FEC254C3B6
:1000100025C04EC023C056C021C020C01FC01EC076
:100020001DC01CC01BC011241FBECFE5D4E0DEBF25
:10003000CDBF12E0A0E6B0E0EAE0FDE002C005902E
:100040000D92AA31B107D9F713E0AAE1B2E001C0DD
:100050001D92A932B107E1F793D155C6D1CF0895CA
:1000600020E030E002C02F5F3F4FF901E655FF4F1F
:1000700080818823C1F702C02150304080813197B0
:100080008C37D1F72F5F3F4FC901089580E090E092
:1000900005C0FC01E35DFD4F20830196FC01E655A0
:1000A000FF4F20812223A9F7089508950895089508
:1000B0001F920F920FB60F9211240F900FBE0F9048
:1000C0001F9018951F920F920FB60F9211242F9325
:1000D0003F934F935F936F937F938F939F93AF93D0
:1000E000BF93EF93FF9333D2282F809124019091F7
:1000F0002501892B09F04CC02C3339F0A0911A024C
:10010000B0911B022E3389F50DC080911C02909195
:100110001D02892B19F581E090E090931D028093D8
:100120001C0217C0A837B105CCF480911C02909135
:100130001D02892B09F43FC081E090E090932102D9
:100140008093200210921D0210921C02A655BF4FF0
:100150001C9210921B0210921A022DC081E090E0B6
:1001600090931F0280931E0226C0A837B1051CF58C
:100170008091200290912102892BE9F4FD01E6553E
:10018000FF4F20831196B0931B02A0931A0213C055
:100190002F3489F02B3479F02D3069F080911A02D8
:1001A00090911B02FC01E655FF4F2083019690932E
:1001B0001B0280931A02FF91EF91BF91AF919F9123
:1001C0008F917F916F915F914F913F912F910F9000
:1001D0000FBE0F901F9018950F931F93BC0140E026
:1001E00050E020E030E008C0F901E655FF4F808183
:1001F000480F511D2F5F3F4F26173707ACF35F9312
:100200004F9380E690E09F938F9309E312E01F9352
:100210000F93B2D2B80182E392E0A7D28DB79EB716
:1002200006960FB6F8949EBF0FBE8DBF1F910F911B
:1002300008950F931F9320E030E002C02F5F3F4FDF
:10024000F901E655FF4F80818823C1F702C0215094
:100250003040808131978C37D1F789010F5F1F4F74
:10026000C801BADF82E392E0B1D18BE395D10655A4
:100270001F4FC801ABD1B80182E392E06DD21F914C
:100280000F910895D6DF892BD9F48091AA0082338B
:1002900011F1833318F4813361F404C08653823042
:1002A00040F4089581E090E0909325028093240229
:1002B000089581E090E090931F0280931E020895BC
:1002C00082E392E083D18FE367D181E090E0909365
:1002D0001F0280931E0208950F931F9300E014E203
:1002E000C8010197F1F763E670E089E392E03DD23F
:1002F00089E392E022D1C8010197F1F767E670E047
:1003000089E392E032D289E392E017D180E197E26B
:100310002EE230E0F9013197F1F70197D9F7E0913A
:100320001A02F0911B02E655FF4F108220E030E0E8
:10033000F901E655FF4F8081F901E35DFD4F8083B0
:10034000882329F02F5F3F4F2530310589F78DE253
:1003500092E03CD180E197E22EE230E0F901319762
:10036000F1F70197D9F781E090E090931F02809315
:100370001E0210922501109224011F910F910895E1
:10038000CF92DF92EF92FF920F931F93CF93DF9361
:1003900018BA84E087BB15BA14BA12BA82EE81BBD0
:1003A00085E083BF12BE1FBC1EBC1DBC1CBC17BC9D
:1003B00016BC1BBC1ABC19BC18BC12BC15BC14BCA6
:1003C00013BC15BE81E089BF80E888B910BE1BB898
:1003D00088E18AB986E880BD579A10BC8BE089B95C
:1003E0007894B9D0C1D078DF9AEAC92E90E0D92E9E
:1003F0008AE8E82E80E0F82E09E312E0CEE2D0E0B1
:100400008091200290912102892BD1F08DE690E01D
:10041000DDD0DF92CF92FF92EF921F930F93ACD17A
:1004200089E392E0D3D02EDF1092210210922002B5
:100430008DB79EB706960FB6F8949EBF0FBE8DBFC0
:100440008091280190912901892B19F081EB92E08C
:10045000BDD080911E0290911F02892B91F081E204
:100460009BD010921B0210921A0210921D02109241
:100470001C02109221021092200210921F02109270
:100480001E0280E197E2FE013197F1F7019709F42E
:10049000B7CFF9CF8F929F92AF92BF92CF92DF9258
:1004A000EF92FF920F931F936B017C0149015A0158
:1004B00000E014E2C8010197F1F763E670E089E318
:1004C00092E053D189E392E038D0C8010197F1F767
:1004D00001C062D03CD08D30E1F7FF92EF92DF9205
:1004E000CF92BF92AF929F928F9288E990E09F93B4
:1004F0008F9309E312E01F930F933ED1C8011DD0E3
:1005000080E092E10197F1F78DB79EB70C960FB698
:10051000F8949EBF0FBE8DBF1F910F91FF90EF907B
:10052000DF90CF90BF90AF909F908F9008955D9B8C
:10053000FECF8CB980E090E00895FC0104C05D9B83
:10054000FECF8CB9319680818823C9F708955F9BCF
:10055000FECF8CB10895539A549A80B5866880BDB9
:1005600010BC8BE089B908952FB7F8941FBC89E8B7
:100570008EBD80E690E09BBD8ABDB898C09A89B7D1
:10058000806289BFC19AB99A1092270210922602FE
:1005900088E388BF2FBF0895282F78940000F8942F
:1005A0008091260290912702892BB9F7822F90E043
:1005B000880F991F9660909327028093260289B72F
:1005C000806189BF80E188BF78940895FC0130E1A3
:1005D00018C078940000F894809126029091270228
:1005E000892BB9F7822F90E0880F991F966090931E
:1005F00027028093260289B7806189BF38BF78942B
:1006000031962081222329F708951F920F920FB669
:100610000F9211242F933F938F93209126023091B4
:10062000270220FF02C0C19A01C0C19821303105C4
:1006300019F489B78F7E89BF3695279530932702A5
:10064000209326028F913F912F910F900FBE0F9014
:100650001F9018951F920F920FB60F9211242F938F
:100660003F934F935F938F939F9386B597B54AB50A
:100670005BB59A0136952795280F391F2417350742
:1006800010F0241B350B39BD28BD88E088BF89B721
:10069000877D886089BF10922902109228021092EB
:1006A0002A029F918F915F914F913F912F910F90CF
:1006B0000FBE0F901F9018951F920F920FB60F92BA
:1006C00011242F938F939F93809128029091290258
:1006D00096958795B099926020912A022F5F2A30D3
:1006E000A1F480FD0BC022E08030920738F096958F
:1006F000879580932C0281E080932B0289B7877DB8
:10070000806289BF80E288BF06C020932A0290934E
:100710002902809328029F918F912F910F900FBEF5
:100720000F901F90189580912B028823E1F310926F
:100730002B0280912C0290E0089580912B02882357
:1007400019F42FEF3FEF06C010922B0280912C027C
:10075000282F30E0C9010895FB01DC018D91019043
:1007600080190110D9F3990B0895FB01DC01019068
:100770000D920020E1F70895AEE0B0E0E1ECF3E087
:1007800099C20D891E8986E08C831A8309838FEFB5
:100790009FE79E838D83CE014996AC016F89788D4A
:1007A000CE01019609D02F813885020F131FF80161
:1007B00010822E96E4E09AC2ABE0B0E0E1EEF3E006
:1007C0006BC23C012B015A01FC0117821682838106
:1007D00081FD03C06FEF7FEFBBC19AE0892E1E0140
:1007E0000894211C311CF3012381F20123FD859122
:1007F00023FF81912F01882309F4A7C1853239F4A1
:1008000023FD859123FF81912F01853221F4B301CE
:1008100090E0B8D1E8CF982FDD24CC249924FFE1D3
:10082000FD15D0F09B3269F09C3228F4903259F0DB
:10083000933291F40EC09D3249F0903369F441E057
:1008400024C052E0D52A84E0D82A28C098E0D92ACA
:1008500025C0E0E1DE2A22C0D7FC29C0892F8053C1
:100860008A3070F4D6FE05C0989C902C1124980E06
:1008700015C0C89CC02C1124C80EF0E2DF2A0EC09F
:100880009E3229F4D6FC61C140E4D42A07C09C36CC
:1008900019F450E8D52A02C0983649F4F20123FD34
:1008A000959123FF91912F01992309F0B8CF892FBA
:1008B0008554833018F08052833038F444E050E09F
:1008C000A40EB51E5FE359830FC0933631F0933702
:1008D00079F0933509F052C01FC0F50180818983FA
:1008E00042E050E0A40EB51E710101E010E011C01D
:1008F000F501E080F180D6FC03C06FEF7FEF02C00E
:10090000692D70E042E050E0A40EB51EC7012FD162
:100910008C015FE7D52213C0F501E080F180D6FCA1
:1009200003C06FEF7FEF02C0692D70E042E050E03E
:10093000A40EB51EC70110D18C0150E8D52AD3FEF4
:1009400006C018C0B30180E290E01CD1CA948C2D7F
:1009500090E008171907B0F30DC0F701D7FC859197
:10096000D7FE81917F01B30190E00CD1C110CA94F0
:10097000015010400115110581F7E4C0943611F0C3
:10098000993669F5D7FE08C0F501E080F180028153
:10099000138144E050E00AC0F501808191817C011F
:1009A0000027F7FC0095102F42E050E0A40EB51E82
:1009B0005FE6D52217FF0AC010950095F094E094E9
:1009C000E11CF11C011D111D80E8D82A2AE030E04D
:1009D000A101C801B70102D1F82EF2183FC0953726
:1009E00029F41D2D1F7E2AE030E01DC01D2D197F2A
:1009F0009F3661F0903720F4983509F0A6C00FC0FB
:100A0000903739F0983709F0A0C004C028E030E0F2
:100A10000AC0106114FD146020E130E004C014FD30
:100A2000166020E132E017FF08C0F5016081718196
:100A30008281938144E050E008C0F501808191817A
:100A4000BC0180E090E042E050E0A40EB51EA101A0
:100A5000C5D0F82EF2188FE7D82ED122D6FE0BC0C3
:100A60005EEFD522F91438F4D4FE07C0D2FC05C0DD
:100A70008FEED82202C01F2D01C0192DD4FE0DC04B
:100A8000FE01EF0DF11D8081803319F499EED9221A
:100A900008C01F5FD2FE05C003C08D2D867809F007
:100AA0001F5F0D2DD3FC13C0D0FE0EC01C1510F01F
:100AB0009F2C0AC09F2C9C0C911A1C2D05C0B301C1
:100AC00080E290E05FD01F5F1C15C8F304C01C15C6
:100AD00010F4C11A01C0CC2404FF0FC0B30180E39D
:100AE00090E050D002FF1CC001FD03C088E790E0F9
:100AF00002C088E590E0B3010CC0802F867881F0B9
:100B000001FF02C08BE201C080E2D7FC8DE2B3019D
:100B100090E038D005C0B30180E390E033D09A94E0
:100B2000F914C8F3FA94F101EF0DF11DB3018081BE
:100B300090E028D0FF20B1F705C0B30180E290E03B
:100B400021D0CA94CC20C9F74ECEF30166817781BB
:100B5000CB012B96E2E1BCC0FC01059061507040D6
:100B60000110D8F7809590958E0F9F1F0895FC0176
:100B70006150704001900110D8F7809590958E0FCC
:100B80009F1F08950F931F93CF93DF938C01EB0169
:100B90008B8181FF1BC082FF0DC02E813F818C8124
:100BA0009D812817390764F4E881F9810193F9835D
:100BB000E88306C0E885F985802F0995892B31F4F3
:100BC0008E819F8101969F838E8302C00FEF1FEF5E
:100BD000C801DF91CF911F910F910895FA01AA27C3
:100BE000283051F1203181F1E8946F936E7F6E5F70
:100BF0007F4F8F4F9F4FAF4FB1E03ED0B4E03CD01E
:100C0000670F781F891F9A1FA11D680F791F8A1F00
:100C1000911DA11D6A0F711D811D911DA11D20D067
:100C200009F468943F912AE0269F11243019305D21
:100C30003193DEF6CF010895462F4770405D419312
:100C4000B3E00FD0C9F7F6CF462F4F70405D4A335F
:100C500018F0495D31FD4052419302D0A9F7EACF27
:100C6000B4E0A6959795879577956795BA95C9F756
:100C700000976105710508959B01AC010A2E069449
:100C80005795479537952795BA95C9F7620F731F02
:100C9000841F951FA01D08952F923F924F925F923F
:100CA0006F927F928F929F92AF92BF92CF92DF927C
:100CB000EF92FF920F931F93CF93DF93CDB7DEB7E1
:100CC000CA1BDB0B0FB6F894DEBF0FBECDBF099475
:100CD0002A88398848885F846E847D848C849B84CC
:100CE000AA84B984C884DF80EE80FD800C811B81DA
:100CF000AA81B981CE0FD11D0FB6F894DEBF0FBE09
:0A0D0000CDBFED010895F894FFCF78
:100D0A002564002B2B2B0041544D590D0050616B6B
:100D1A0065742065726B616E6E742C2050726F63FD
:100D2A00657373696E67200D0A00496E68616C7499
:100D3A003A202573200D0A0041544448256C782C2A
:100D4A00444C256C782C434E0D0000000000000036
:100D5A000000000000000000000000000000000089
:100D6A000000000000000000000000000000000079
:100D7A000000000000000000000000000000000069
:100D8A000000000000000000000000000000000059
:100D9A000000000000000000000000000000000049
:100DAA000000000000000000000000000000000039
:100DBA000000000000000000000000000000000029
:100DCA0000000100010001000100327C337C416512
:100DDA007066656C7C332C39397C313332340000CF
:100DEA0000000000000000000000000000000000F9
:100DFA0000000000000000000000000000000000E9
:100E0A0000000000000000000000000000000000D8
:100E1A0000000000000000000000000000000000C8
:100E2A0000000000000000000000000000000000B8
:100E3A0000000000000000000000000000000000A8
:100E4A000000377C307C7A65696C65317C7A65692B
:100E5A006C65327C7A65696C65337C7A65696C6528
:100E6A00347C313233000000000000000000000032
:100E7A000000000000000000000000000000000068
:100E8A000000000000000000000000000000000058
:100E9A000000000000000000000000000000000048
:100EAA000000000000000000000000000000000038
:0A0EBA00000000000000000000002E
:00000001FF
